:04000000CCEF06F04B
:1000080000C020F001C01FF002C01EF003C01DF0A8
:1000180004C01CF005C01BF006C01AF007C019F098
:1000280008C018F009C017F00AC016F00BC015F088
:10003800E1CF25F0E2CF26F0E9CF23F0EACF24F094
:10004800F3CF21F0F4CF22F09EA2B9D09E92000106
:10005800CF6B040ECF5D65E2090E006E000E016ED7
:10006800CFC004F0000E056E20D9350E0024E96ECD
:10007800000E0120EA6EEECF00F000A850D0090E65
:10008800006E000E016ECFC004F0000E056E0DD993
:10009800350E0026000E0122050E0024046E000E07
:1000A8000120056E04C0E9FF05C0EAFF010EEE2439
:1000B800006E000EEE20016E000EEE20026E000EA5
:1000C800EE20036E04C0E1FF05C0E2FF00C0E6FFBA
:1000D80001C0E6FF02C0E6FF03C0E6FF04C0E9FF77
:1000E80005C0EAFFEECF00F0EECF01F0EECF02F050
:1000F800EECF03F0005001100210031010E1090EBA
:10010800006E000E016ECFC004F0000E056ECDD853
:10011800350E0024E16E000E0120E26EE698CF2B2A
:1001280098D7D06B020ED05D4AE2D0C000F0000E26
:10013800016E0036009001360036009001367D0EC3
:100148000024E96E000E0120EA6EEECF04F0EECF37
:1001580005F0EECF06F0EECF07F007AE2ED0D0C0F8
:1001680000F0000E016E0036009001360036009057
:1001780001367D0E0024046E000E0120056E04C0B9
:10018800E9FF05C0EAFFEECF00F0EECF01F0EECFB9
:1001980002F0EECF03F0010E0026000E012202222B
:1001A800032204C0E1FF05C0E2FF00C0E6FF01C072
:1001B800E6FF02C0E6FF03C0E6FFD02BB3D7B1DBF2
:1001C80021C0F3FF22C0F4FF20C000F01FC001F0DF
:1001D8001EC002F01DC003F01CC004F01BC005F0D7
:1001E8001AC006F019C007F018C008F017C009F0C7
:1001F80016C00AF015C00BF023C0E9FF24C0EAFFBF
:0A02080025C0E1FF26C0E2FF11004F
:0A02120061C0E9FF62C0EAFF1200BC
:06021C00000000001200CA
:10022200060000016091F4DFFDCFECFFFECFECFF92
:10023200FFCFECFF349634A8349A5EB0348A1200B1
:0A024200210E0D6E0D2EFED71200E6
:10024C000F0E0C6E470E0D6E0D2EFED70C2EFCD71E
:06025C000000000012008A
:10026200086A096A100E0C6E013408360936045009
:10027200085E0550D8A0053C095ED8B007D00450EE
:1002820008260550D8B0053C0926D890003601361C
:060292000C2EEAD7120059
:0C0298000E0E0D6E0D2EFED700001200A1
:0E02A400ACB202D00000FCD7CEC0ADFF1200FD
:1002B2000B6A0A6A096A00500402F4CF09F0F3CF0C
:1002C20008F001500502F4CF0BF0F3CF0AF0005012
:1002D2000502F3500926F4500A22E86A0B22015063
:1002E2000402F3500926F4500A22E86A0B2208C0DD
:1002F20000F009C001F00AC002F00BC003F01200C6
:080302009484F00EBD161200F8
:0A030A009494BA840C0EBD12120088
:10031400BB50010F006E016A000E0122C7C004F039
:10032400000E056EC4DF060E026E00C004F001C0AC
:1003340005F0025005E005320432059EFF0FFAD79E
:10034400040E016E04C000F0015004E00036009079
:10035400FF0FFBD7300E0014036E04C000F005C07D
:1003640001F001320032019E01320032019E00C0D0
:0C037400BEFF0F0EBD160350BD1212009C
:10038000C26A331C006E0050C1160F0EC012C08E20
:10039000C7C000F000360090003600900050C21236
:1003A000C2807ADFC282C2A201D0FDD7C4CF01F0E1
:1003B000006A00C0C8F001C0C9F0C3500012000EAE
:1003C000011200C0C8F001C0C9F0C290000E0014B4
:1003D000026E0150800B036E000E031802E1000E46
:1003E000021803E00001C86BC96BC8C000F0C9C0A7
:0403F00001F0120006
:0803F400BE6ABD98BD9A12001B
:1003FC00939A93989390939293949396819A8198CD
:10040C0081968194819281901BDF1ADF19DF8182A2
:10041C008180818AFDDE819A13DF818AF9DE819ADF
:10042C000FDF818AF5DE819A0BDF8190818AF0DE05
:10043C00819A06DF818AECDE819A81928186818A9B
:10044C00E7DE819AFDDE81968180818AE1DE819AE8
:10045C008190818ADDDE819AF3DE818AD9DE819AF0
:10046C008180818AD5DE819AEBDE8190818AD0DE13
:10047C00819A8186818481828180818AC9DE819A78
:08048C00DFDE0001AD8112006A
:10049400030E006E040EE16E000EE26ED1C0E9FFA1
:1004A400D2C0EAFFEECFE6FF0006FCE10001609156
:1004B4000450051822E1030ED125E96E000ED22165
:1004C400EA6E06C000F0000E016E003600900136A0
:1004D4000050EE24E16E0150EE20E26ED3C0E6FF40
:1004E400D4C0E6FF0650010F006E00C006F00650AF
:1004F4000418D8B4066A608134D006C000F0000E37
:10050400016E05500024026E000E0120036E02C02D
:1005140007F003C008F0000E035C02E10450025C23
:1005240004E30450075E000E085A030ED125E96E59
:10053400000ED221EA6E07C000F008C001F00036B8
:10054400009001360050EE24E16E0150EE20E26E80
:10055400D3C0E6FFD4C0E6FF0550010F006E00C013
:1005640005F0030E006ED1C0E1FFD2C0E2FF040E1D
:10057400E96E000EEA6EEECFE6FF0006FCE1120023
:10058400AECF01F0ABA202D0AB98AB8801C000F0B3
:02059400120053
:10059600A40E0001A96F020EAA6FCE0EAB6F000E5D
:1005A600AC6F840EA56F050EA66F000EA76F000E2A
:1005B600A86FFF0E9F6FFF0EA06F000EA16F000EBB
:1005C600A26FFF0E856FFF0E866F000E876F000EFF
:1005D600886FAC8A900EAB6E948E949C9EAA03D0C4
:0805E600AECF00F0FBD71200BC
:1005EE000001609B0FDEC75307E034A603D034989A
:1005FE00EF980BD0348601D0349634B805D034AA97
:0C060E0003D03486608B01D0060012007F
:10061A000001C7BF02D0819601D08186C7BD02D032
:10062A00819401D08184C7BB02D0819201D081829A
:10063A00C7B902D0819001D08180ADB102D0818842
:10064A0001D08198818AE5DD819AC7B702D0819667
:10065A0001D08186C7B502D0819401D08184C7B305
:10066A0002D0819201D08182C7B102D0819001D09B
:10067A008180ADB102D0818801D08198818AC9DD9B
:0E068A00819AADA102D0DDDD01D0D6DD1200D7
:10069800030E006E050EE16E000EE26EC7C0E9FFA4
:1006A800C8C0EAFFEECFE6FF0006FCE107C008F08D
:1006B8000750010F006E00C007F00550075CD8B066
:1006C800076A0604006E00C006F0030E006EC7C07D
:1006D800E1FFC8C0E2FF050EE96E000EEA6EEECF3C
:1006E800E6FF0006FCE1030E0001C725E96E000ED7
:1006F800C821EA6EEECF03F0EECF04F008C000F098
:10070800000E016E00360090013600500324E96E99
:1007180001500420EA6EEECF00F0EECF01F0120097
:0E072800C00EF2145B6EF29ED0BEF29C120068
:100736006DDDFDCFECFFFECFECFFFFCFECFF348687
:040746000600120097
:10074A00349A61C0E1FF62C0E2FFE6980001C75136
:10075A00C811C911CA1146E0FF0EC719006EFF0E73
:10076A00C819016EFF0EC919026EFF0ECA19036E6F
:10077A0000C0C7F001C0C8F002C0C9F003C0CAF087
:10078A00010E0024046E000E0120056E000E0220E8
:10079A00066E000E0320076E04C0C7F005C0C8F03D
:1007AA0006C0C9F007C0CAF061C000F062C001F01B
:1007BA00050E0024E16E000E0120E26E04C0E6FF81
:1007CA0005C0E6FF06C0E6FF07C0E6FF61C0E1FF1D
:1007DA0062C0E2FFE68661C0E1FF62C0E2FFE6882E
:0607EA0034883486120081
:0E07F0005BBEF28ED0AE02D05BBCF28C12006B
:1007FE000001CB6B050ECB5D0AE2CB51C925E16E34
:10080E00000ECA21E26E200EE66ECB2BF3D7CB5133
:10081E00C925E16E000ECA21E26EE66ACB07CB5106
:10082E00C925CC6F000ECA21CD6F0A0E046E000EC4
:10083E00056EC7C000F0C8C001F00CDD08C000F0A6
:10084E0009C001F0300E0026CCC0E1FFCDC0E2FFA2
:10085E0000C0E6FF0A0E046E000E056EC7C000F063
:10086E00C8C001F0F7DC00C0C7F001C0C8F0000E30
:10087E00011802E1000E001801E102D0CB07CFD71C
:02088E00120056
:100890000001CA6BC7C0E9FFC8C0EAFFEECFC9F0CC
:1008A000C951000A0EE0C9C0CEF0FCDC0001CA2B21
:1008B000CA51C725E96E000EC821EA6EEECFC9F015
:0408C000EFD712005C
:0608C4005E6AADDC1200CB
:1008CA00A3DCEECF34F00500EE50FD6EEE50FE6E66
:0808DA00EE50FF6E1200120047
:1008E2008C742C0E0001C76F010EC86F000EC96F09
:0C08F200CA6F2ADF1FDF0000F3D71200DE
:1008FE008C722C0E0001C76F010EC86F000EC96FEF
:0C090E00CA6F1CDF11DF0000F3D71200DD
:10091A000900F5CFE6FF0006FBE10106F9E1120046
:10092A009EAA3FD09E9A29DE00C07CF000505B0A46
:10093A0008E1010E326E8B0E0001896F000E8A6F7C
:10094A001CD03250010A19E1000189C0E1FF8AC0B6
:10095A00E2FF7CC0E6FF8B0E895D016E000E8A59AC
:10096A00026E000E006E0250005C02E10150140893
:10097A0002E2326A02D0894B8A2B00017C515D0A5D
:10098A0010E13250010A0DE1326A6451631909E03B
:10099A00630ED16F000ED26F8B0ED36F000ED46F21
:0409AA0074DD1200E6
:1009AE0000016093350E016E000E026E5E6A01C08C
:1009BE00E9FF02C0EAFFEECF00F000BC2AD0AE8DF8
:1009CE00AE87010E0124E16E000E0220E26EAFC072
:1009DE00E6FFB0C0E6FFB1C0E6FFB2C0E6FF050E0F
:1009EE000124E16E000E0220E26EE66AE66AE66A15
:1009FE00E66A01C0E1FF02C0E2FFAEC0E6FF0250B0
:100A0E00621902E16151011802E1AEC034F0609347
:100A1E0009D0090E0126000E02225E2A040E5E5C2B
:060A2E00C6E36083120024
:100A34008C702C0E0001C76F010EC86F000EC96FB9
:0C0A4400CA6F81DE76DE0000F3D71200DE
:100A5000D5DC010EC76FE1DD0C0EC76FDEDD1200C5
:100A60004D0EBA6E310EBB6EF28EF28CD08E9D8220
:060A70009F82BA8412000F
:100A76000F01386B396B3A6B3B6B3C6B956A836A3B
:100A8600968096829680848096828482946A826A10
:020A960012004C
:100A980015DF00006451000A000ED8A4010EC76FCC
:100AA800A2DD3EDE0001645301E002D09DDEF0D7F6
:100AB800630E0001C76F000EC86FEADD00C0C3F007
:100AC80001C0C4F091DEC3C001F0C4C002F0010E41
:100AD8000001C325E96E000EC421EA6EEE50450AF6
:100AE8000CE1020EC325E96E000EC421EA6EEE5039
:100AF800440A03E1010E006E01D0006A01C0E1FF63
:100B080002C0E2FF00C0E6FF01C0E9FF02C0EAFF41
:100B1800EE52D8B46ED0030EC325E96E000EC42180
:100B2800EA6EEE50440A64E1040EC325C56F000E58
:100B3800C421C66F48D00001050EC325E96E000E1A
:100B4800C421EA6E300EEE5C006E00B002D0839ACB
:100B580001D0838A4DD00001050EC325E96E000E31
:100B6800C421EA6E300EEE5C006E00B002D0839CA9
:100B780001D0838C3DD00001050EC325E96E000E1F
:100B8800C421EA6EEE50310A03E1FF0EAE6F01D0C8
:100B9800AE6BAEC083FF81CFC7F0000EC86FB90E31
:100BA800C96F000ECA6F27DE2D0EC76F000EC86F03
:100BB8006BDEB90EC76F000EC86F66DE5D0ECE6FB6
:100BC80052EC01F015D0C5C0E9FFC6C0EAFFEE50EF
:100BD800350AB1E0C5C0E9FFC6C0EAFFEE50360AE3
:100BE800BAE0C5C0E9FFC6C0EAFFEE50410AC3E05B
:100BF800B3D0C3C001F0C4C002F0010E0001C32588
:100C0800E96E000EC421EA6EEE504E0A03E1010EB1
:100C1800006E01D0006A01C0E1FF02C0E2FF00C01F
:100C2800E6FF01C0E9FF02C0EAFFEE5230E0000132
:100C3800020EC325C56F000EC421C66F20D00F0158
:100C4800388192800001C76BC0EC01F000C0C7F08A
:100C580001C0C8F0AF0E0001C96F000ECA6FCBDD2E
:100C6800270EC76F000EC86F0FDEAF0EC76F000EDE
:100C7800C86F0ADE5D0ECE6F52EC01F007D0C5C01A
:100C8800E9FFC6C0EAFFEE50300AD9E065D0C3C01C
:100C980001F0C4C002F0010E0001C325E96E000E88
:100CA800C421EA6EEE50570A0CE1020EC325E96E24
:100CB800000EC421EA6EEE504D0A03E1010E006EEB
:100CC80001D0006A01C0E1FF02C0E2FF00C0E6FFF8
:100CD80001C0E9FF02C0EAFFEE523EE0BA80BA92D4
:100CE800630EBB6EFAEC01F0030EC325E96E000E2D
:100CF800C421EA6EEE50310A03E185EC01F003D01D
:100D080081EC01F02CD0040EC325E96E000EC4213D
:100D1800EA6E300EEE5CC76F640EC703F3CFC7F000
:100D2800050EC325E96E000EC421EA6E300EEE5C96
:100D3800006E0A0E0002F3CF00F00050C727060E1F
:100D4800C325E96E000EC421EA6E300EEE5C006E1B
:100D58000050C7278AEC01F0EADC000099D612009F
:100D68000001606B500E596E000E5A6E030EA46F90
:0C0D7800A36B359C3E9C479C509C1200D5
:100D8400B886B06ACF0EAF6EAC8403DC9E9A9F8A9D
:040D94009D8A120022
:100D98009EEC07F06CDE60DE57DEF0DFE1DFAE6B65
:100DA800340EAF6F0A0EB06F000EB16F000EB26F47
:100DB800FADD010EAE6FFE0EAF6F080EB06F000EBB
:100DC800B16F000EB26FEFDD020EAE6FE20EAF6FC5
:100DD800080EB06F000EB16F000EB26FE4DD030EA7
:100DE800AE6F980EAF6F0A0EB06F000EB16F000EA7
:100DF800B26FD9DD95DC0A0E0001636F656B646B19
:100E0800680E666F000E676FEFDCF28ED0BEF28C54
:100E1800000160996087080E5F6E59C061F05AC082
:100E280062F0000E625D02E1500E615D05E3350E71
:100E3800616F000E626F0AD0090E6125006E000E08
:100E48006221016E00C061F001C062F061C0E9FF7B
:100E580062C0EAFF010E006E340EE16E000EE26E13
:100E6800EECFE6FF0006FCE134AC03D034BE01D07F
:100E780001D031D034C000F0070E001600C05EF07B
:100E88005F505E5C01E327D034B60ED0000119DD57
:100E980009EC01F0D70EEF16280E3414006E00503E
:100EA800EF1260B701D03DD034A803D034BA01D0D6
:100EB80012D034A610D00001608961C05CF062C015
:100EC8005DF034C000F0070E001600C05FF05F5000
:100ED800000A01E108D0000162515A1802E1595094
:100EE800611901E09ED760A91CD060975CC061F0D1
:100EF8005DC062F061C059F062C05AF061C0E9FF9C
:100F080062C0EAFF010E006E340EE16E000EE26E62
:100F1800EECFE6FF0006FCE134AC03D034BE01D0CE
:060F2800B5D776D7FFD714
:100F3C0010EE27F00D0E006E010E016E2E0EF66EE9
:0E0F4C000F0EF76E000EF86E8DEC04F0120022
:060F2E005B414E303A0069
:050F34005B50423A0091
:010F390000B7
:010F3A000FA7
:020000040030CA
:0D000100231F3CFFBF81FF0FC00FE00F4029
:00000001FF
