:040000003FEF03F0DB
:1000080000C01CF001C01BF002C01AF003C019F0B8
:1000180004C018F005C017F008C016F009C015F0A4
:10002800E1CF1FF0E2CF20F0E9CF1DF0EACF1EF0BC
:100038009EA26BD09E920001696B040E695D65E219
:10004800090E006E000E016E69C004F0000E056E08
:1000580075DA2E0E0024E96E000E0120EA6EEECF4E
:1000680000F000A850D0090E006E000E016E69C0A5
:1000780004F0000E056E62DA2E0E0026000E012234
:10008800050E0024046E000E0120056E04C0E9FF71
:1000980005C0EAFF010EEE24006E000EEE20016E90
:1000A800000EEE20026E000EEE20036E04C0E1FF8B
:1000B80005C0E2FF00C0E6FF01C0E6FF02C0E6FFA0
:1000C80003C0E6FF04C0E9FF05C0EAFFEECF00F079
:1000D800EECF01F0EECF02F0EECF03F000500110AA
:1000E8000210031010E1090E006E000E016E69C0C7
:1000F80004F0000E056E22DA2E0E0024E16E000ECA
:100108000120E26EE698692B98D71CC000F01BC04E
:1001180001F01AC002F019C003F018C004F017C0AB
:1001280005F016C008F015C009F01DC0E9FF1EC093
:0C013800EAFF1FC0E1FF20C0E2FF110041
:0A014400210E0D6E0D2EFED71200E5
:10014E000F0E0C6E470E0D6E0D2EFED70C2EFCD71D
:06015E0000000000120089
:0601640000000000120083
:10016A00000168BF02D0819601D0818668BD02D0A5
:10017A00819401D0818468BB02D0819201D08182AE
:10018A0068B902D0819001D0818053B002D08188B1
:10019A0001D08198818AE1DF819A68B702D081967D
:1001AA0001D0818668B502D0819401D0818468B378
:1001BA0002D0819201D0818268B102D0819001D0AF
:1001CA00818053B002D0818801D08198818AC5DFAD
:0E01DA00819A53A002D0B6DF01D0AFDF120031
:1001E800086A096A100E0C6E013408360936045084
:1001F800085E0550D8A0053C095ED8B007D0045069
:1002080008260550D8B0053C0926D8900036013696
:060218000C2EEAD71200D3
:0A021E0058C0E9FF59C0EAFF1200C2
:0C022800539067C068F09DDF5380120007
:10023400F4DFFDCFECFFFECFECFFFFCFECFF218618
:04024400060012009E
:10024800219A58C0E1FF59C0E2FFE69800016151C8
:1002580062116311641146E0FF0E6119006EFF0E12
:100268006219016EFF0E6319026EFF0E6419036EA8
:1002780000C061F001C062F002C063F003C064F026
:10028800010E0024046E000E0120056E000E0220EF
:10029800066E000E0320076E04C061F005C062F010
:1002A80006C063F007C064F058C000F059C001F000
:1002B800050E0024E16E000E0120E26E04C0E6FF88
:1002C80005C0E6FF06C0E6FF07C0E6FF58C0E1FF2D
:1002D80059C0E2FFE68658C0E1FF59C0E2FFE68850
:0602E800218821861200AE
:1002EE000001606B050E605D0AE260516325E16EF0
:1002FE00000E6421E26E200EE66E602BF3D7605185
:10030E006325E16E000E6421E26EE66A60076051BD
:10031E006325656F000E6421666F0A0E046E000E73
:10032E00056E61C000F062C001F057DF08C000F03A
:10033E0009C001F0300E002665C0E1FF66C0E2FF85
:10034E0000C0E6FF0A0E046E000E056E61C000F0DE
:10035E0062C001F042DF00C061F001C062F0000E29
:10036E00011802E1000E001801E102D06007CFD79C
:02037E0012006B
:1003800012D00F01388192808080010EC26E0E0E55
:10039000C16E10D00F01388392828082050EC26E2A
:1003A0000F0EC16E07D000016051000AEAE06051F3
:1003B000010AF0E0AA0EC06EC282C2A201D0FDD72F
:1003C000C4CF03F0026AC3CF00F0000E016E0250EA
:0803D00000120350011212009B
:1003D800939A93989390939293949396819A8198F1
:1003E8008196819481928190AEDEADDEACDE818211
:1003F8008180818AB3DE819AA6DE818AAFDE819A06
:10040800A2DE818AABDE819A9EDE8190818AA6DE99
:10041800819A99DE818AA2DE819A81928186818A77
:100428009DDE819A90DE81968180818A97DE819A0D
:100438008190818A93DE819A86DE818A8FDE819A15
:100448008180818A8BDE819A7EDE8190818A86DE38
:10045800819A8186818481828180818A7FDE819AE6
:0604680072DE5380120059
:10046E0010D0800E0001616F1AD0C00E616F17D0D0
:10047E00940E616F14D0D40E616F11D0800E616F27
:10048E000ED000016151010AECE06151020AEDE06B
:10049E006151030AEDE06151040AEDE0EFD7620508
:1004AE00006E6151002600C061F000C068F056DE9B
:1004BE005390606B60516325E96E000E6421EA6E05
:1004CE00EE520BE060516325E96E000E6421EA6E78
:0E04DE00EECF67F0A2DE602BEDD75380120048
:1004EC00576A490E2C6E000E2D6E526A2E9C379C4C
:0604FC00409C499C120027
:100502000001606B3CDF00C061F001C062F0220EAE
:100512000001636F000E646FE9DE010E616F010E70
:10052200626F220E636F000E646FA0DF320E616F86
:10053200000E626F636F646F86DE7BDE0000E0D7C1
:020542001200A5
:100544000B6A0A6A096A00500402F4CF09F0F3CF77
:1005540008F001500502F4CF0BF0F3CF0AF000507D
:100564000502F3500926F4500A22E86A0B220150CE
:100574000402F3500926F4500A22E86A0B2208C048
:1005840000F009C001F00AC002F00BC003F0120031
:1005940021DF010E0001686FE6DD0C0E686FE3DDFC
:0205A400120043
:1005A6004D0EBA6E310EBB6EF28EF28CD08E9D82DF
:0605B6009F82BA841200CE
:1005BC000F01386B396B3A6B3B6B3C6B956A836AFA
:0605CC00968096821200E9
:1005D2000900F5CFE6FF0006FBE10106F9E1120092
:1005E2001DDEEECF21F00500EE50FD6EEE50FE6EE8
:0805F200EE50FF6E1200120032
:1005FA0057922E0E016E000E026E546A01C0E9FF78
:10060A0002C0EAFFEECF00F000BC2AD05B8C5B860A
:10061A00010E0124E16E000E0220E26E5CC0E6FFCC
:10062A005DC0E6FF5EC0E6FF5FC0E6FF050E01247F
:10063A00E16E000E0220E26EE66AE66AE66AE66AA1
:10064A0001C0E1FF02C0E2FF5BC0E6FF0250591899
:10065A0002E15850011802E15BC021F0579209D01B
:10066A00090E0126000E0222542A040E545CC6E327
:04067A005782120091
:10067E009EDF92DF88DF33DF5B6A020E5C6E050E53
:10068E005D6E000E5E6E000E5F6EB0DFF28ED0BE3F
:10069E00F28C57985786080E5A6E2CC058F02DC003
:1006AE0059F0000E595C02E1490E585C05E32E0E1E
:1006BE00586E000E596E0AD0090E5824006E000EA8
:1006CE005920016E00C058F001C059F058C0E9FF22
:1006DE0059C0EAFF010E006E210EE16E000EE26EB1
:1006EE00EECFE6FF0006FCE121AC03D021BE01D027
:1006FE0001D02ED021C000F0070E001600C054F01D
:10070E005A50545C01E324D021B60CD063DF80DD57
:10071E00D70EEF16280E2114006E0050EF1257B6AA
:10072E0001D03BD021A803D021BA01D011D021A6EF
:10073E000FD0578858C055F059C056F021C000F060
:10074E00070E001600C05AF05A50000A01E107D0F9
:10075E0059502D1802E12C50581801E0A2D757A875
:10076E001CD0579655C058F056C059F058C02CF0B2
:10077E0059C02DF058C0E9FF59C0EAFF010E006EB6
:10078E00210EE16E000EE26EEECFE6FF0006FCE1FA
:0E079E0021AC03D021BE01D0B9D77BD7FFD745
:020000040030CA
:0D000100231F3CFFBF81FF0FC00FE00F4029
:00000001FF
