:04000000D4EF03F046
:1000080000C01CF001C01BF002C01AF003C019F0B8
:1000180004C018F005C017F008C016F009C015F0A4
:10002800E1CF1FF0E2CF20F0E9CF1DF0EACF1EF0BC
:100038009EA26BD09E9200016C6B040E6C5D65E213
:10004800090E006E000E016E6CC004F0000E056E05
:10005800D0DA280E0024E96E000E0120EA6EEECFF9
:1000680000F000A850D0090E006E000E016E6CC0A2
:1000780004F0000E056EBDDA280E0026000E0122DF
:10008800050E0024046E000E0120056E04C0E9FF71
:1000980005C0EAFF010EEE24006E000EEE20016E90
:1000A800000EEE20026E000EEE20036E04C0E1FF8B
:1000B80005C0E2FF00C0E6FF01C0E6FF02C0E6FFA0
:1000C80003C0E6FF04C0E9FF05C0EAFFEECF00F079
:1000D800EECF01F0EECF02F0EECF03F000500110AA
:1000E8000210031010E1090E006E000E016E6CC0C4
:1000F80004F0000E056E7DDA280E0024E16E000E75
:100108000120E26EE6986C2B98D71CC000F01BC04B
:1001180001F01AC002F019C003F018C004F017C0AB
:1001280005F016C008F015C009F01DC0E9FF1EC093
:0C013800EAFF1FC0E1FF20C0E2FF110041
:06014400000000001200A3
:10014A000F0E0C6E470E0D6E0D2EFED70C2EFCD721
:06015A000000000012008D
:0A016000210E0D6E0D2EFED71200C9
:10016A0000016BBF02D0819601D081866BBD02D09F
:10017A00819401D081846BBB02D0819201D08182AB
:10018A006BB902D0819001D081805BB002D08188A6
:10019A0001D08198818AD1DF819A6BB702D081968A
:1001AA0001D081866BB502D0819401D081846BB372
:1001BA0002D0819201D081826BB102D0819001D0AC
:1001CA0081805BB002D0818801D08198818AB5DFB5
:0E01DA00819A5BA002D0B4DF01D0BDDF12001D
:0A01E80057C0E9FF58C0EAFF1200FB
:1001F20006005A90F8DFFDCFECFFFECFECFFFFCFF9
:0E020200ECFF279627A8279A23B0278A120020
:0C0210005B906AC06BF0A9DF5B801200FD
:10021C00086A096A100E0C6E01340836093604504F
:10022C00085E0550D8A0053C095ED8B007D0045034
:10023C0008260550D8B0053C0926D8900036013662
:06024C000C2EEAD712009F
:10025200939A93989390939293949396819A819878
:1002620081968194819281906FDF6EDF6DDF818252
:100272008180818A66DF819A67DF818A62DF819A63
:1002820063DF818A5EDF819A5FDF8190818A59DF35
:10029200819A5ADF818A55DF819A81928186818A89
:1002A20050DF819A51DF81968180818A4ADF819A6B
:1002B2008190818A46DF819A47DF818A42DF819A73
:1002C2008180818A3EDF819A3FDF8190818A39DF96
:1002D200819A8186818481828180818A32DF819ABA
:0602E20033DF5B80120017
:1002E80010D0800E0001666F1AD0C00E666F17D04E
:1002F800940E666F14D0D40E666F11D0800E666FA0
:100308000ED000016651010AECE06651020AEDE0E8
:100318006651030AEDE06651040AEDE0EFD7670580
:10032800006E6651002600C066F000C06BF019DF51
:100338005B905E6A5E506825E96E000E6921EA6E80
:10034800EE520BE05E506825E96E000E6921EA6EF8
:0E035800EECF6AF059DF5E2AEDD75B8012000F
:06036600236A44DF1200CF
:10036C003DDFFDCFECFFFECFECFFFFCFECFF278690
:04037C000600120065
:10038000279A57C0E1FF58C0E2FFE6980001665186
:1003900067116811691146E0FF0E6619006EFF0EC5
:1003A0006719016EFF0E6819026EFF0E6919036E60
:1003B00000C066F001C067F002C068F003C069F0D9
:1003C000010E0024046E000E0120056E000E0220B6
:1003D000066E000E0320076E04C066F005C067F0CD
:1003E00006C068F007C069F057C000F058C001F0BF
:1003F000050E0024E16E000E0120E26E04C0E6FF4F
:1004000005C0E6FF06C0E6FF07C0E6FF57C0E1FFF4
:1004100058C0E2FFE68657C0E1FF58C0E2FFE68819
:0604200027882786120068
:100426005A9ADFDE5E5207E027A603D02798EF9898
:100436000BD0278601D0279627B805D027AA03D048
:0A04460027865A8A01D00600120032
:100450005E6A050E5E5C0BE25E5000016825E16E8F
:10046000000E6921E26E200EE66E5E2AF2D70001D0
:100470005E506825E16E000E6921E26EE66A5E0656
:100480005E5068255F6E000E6921606F0A0E046E73
:10049000000E056E66C000F067C001F0BFDE08C048
:1004A00000F009C001F0300E00265FC0E1FF60C01F
:1004B000E2FF00C0E6FF0A0E046E000E056E66C085
:1004C00000F067C001F0AADE00C066F001C067F06E
:1004D000000E011802E1000E001801E102D05E06D4
:0404E000CFD7120060
:1004E40040DF000084B002D0D88001D0D890000E44
:1004F400D8B0010E5E6E5E50000A000ED8A4010E44
:100504005E6E8FDF280E0001666F000E676F686FE6
:10051400696F34DF29DF000084B0E2D78C7E8CAEB3
:1005240002D0598002D0FE0E59161BDF0000000EC7
:1005340084B0010E5E6E5E50000A000ED8A4010E57
:100544005E6E6FDF280E0001666F000E676F686FC6
:10055400696F14DF09DF000084A0E7D7C1D7120058
:100564005A92280E016E000E026E236A01C0E9FF42
:1005740002C0EAFFEECF00F000BC2BD00001618D79
:100584006187010E0124E16E000E0220E26E62C05A
:10059400E6FF63C0E6FF64C0E6FF65C0E6FF050E44
:1005A4000124E16E000E0220E26EE66AE66AE66A63
:1005B400E66A01C0E1FF02C0E2FF61C0E6FF02504B
:1005C400581802E15750011802E161C027F05A920D
:1005D40009D0090E0126000E0222232A040E235CF0
:0605E400C5E35A8212007B
:1005EA000900F5CFE6FF0006FBE10106F9E112007A
:1005FA000B6A0A6A096A00500402F4CF09F0F3CFC1
:10060A0008F001500502F4CF0BF0F3CF0AF00050C6
:10061A000502F3500926F4500A22E86A0B22015017
:10062A000402F3500926F4500A22E86A0B2208C091
:10063A0000F009C001F00AC002F00BC003F012007A
:10064A00CEDDEECF27F00500EE50FD6EEE50FE6EC9
:08065A00EE50FF6E12001200C9
:10066200F7DD010E00016B6F7FDD0C0E6B6F7CDD21
:02067200120074
:1006740078DE000084B202D0D88001D0D890000E79
:10068400D8B0010E5E6E5E50000A000ED8A4010EB2
:100694005E6EC7DE280E0001666F000E676F686F1E
:1006A400696F6CDE61DE000084B2E2D78C7C8CAEB4
:1006B40002D0598201D0599254DE0000000E84B257
:1006C400010E5E6E5E50000A000ED8A4010E5E6E2E
:1006D400A8DE280E0001666F000E676F686F696FF1
:0E06E4004DDE42DE000084A2E7D7C2D712002E
:1006F2000F01386B396B3A6B3B6B3C6B956A836AC3
:0E070200968096829680848096828482120071
:100710005A6A430E5C6E000E5D6E266A289C319C00
:060720003A9C439C12000C
:100726004D0EBA6E310EBB6EF28EF28CD08E9D825D
:060736009F82BA8412004C
:10073C008C70E80E0001666F030E676F000E686F19
:0C074C00696F18DE0DDE0000F3D712000C
:10075800030E5914016E0150030A15E1214A222A99
:1007680021C066F022C067F04C0E0001686F000ED1
:10077800696F6ADE010E666F010E676F4C0E686F57
:10078800000E696FADDD0001F40E666F010E676F34
:10079800000E686F696FF0DDE5DD0000D9D7120043
:1007A800216A226AA2DFBBDF58DFAEDF616BE40E8D
:1007B800626F040E636F000E646F000E656FCEDE0D
:1007C8000001616B740E626F060E636F000E646F3A
:1007D800000E656FC3DE0001616B3C0E626F070E91
:1007E800636F000E646F000E656FB8DE0001616B09
:1007F800580E626F070E636F000E646F000E656F10
:10080800ADDE596A596AF28ED0BEF28C5A985A8671
:10081800080E566E5AA401D019D05CC057F05DC0BE
:1008280058F0000E585C02E1430E575C05E3280EB1
:10083800576E000E586E0AD0090E5724006E000E2F
:100848005820016E00C057F001C058F057C0E9FFAA
:1008580058C0EAFF010E006E270EE16E000EE26E30
:10086800EECFE6FF0006FCE127AC03D027BE01D09F
:1008780001D02ED027C000F0070E001600C023F0CC
:100888005650235C01E324D027B60CD0DADEA8DC6E
:10089800D70EEF16280E2714006E0050EF125AB626
:1008A80001D03DD027A803D027BA01D011D027A660
:1008B8000FD05A8857C024F058C025F027C000F040
:1008C800070E001600C056F05650000A01E109D084
:1008D8005AB407D058505D1802E15C50571801E02F
:1008E800A0D75AA81CD05A9624C057F025C058F053
:1008F80057C05CF058C05DF057C0E9FF58C0EAFF28
:10090800010E006E270EE16E000EE26EEECFE6FFDE
:100918000006FCE127AC03D027BE01D0B7D776D7B5
:02092800FFD7F7
:020000040030CA
:0D000100231F3CFFBF81FF0FC00FE00F4029
:00000001FF
