:0400000086EF04F093
:1000080000C01CF001C01BF002C01AF003C019F0B8
:1000180004C018F005C017F008C016F009C015F0A4
:10002800E1CF1FF0E2CF20F0E9CF1DF0EACF1EF0BC
:100038009EA26BD09E920001896B040E895D65E2D9
:10004800090E006E000E016E89C004F0000E056EE8
:10005800E5DA290E0024E96E000E0120EA6EEECFE3
:1000680000F000A850D0090E006E000E016E89C085
:1000780004F0000E056ED2DA290E0026000E0122C9
:10008800050E0024046E000E0120056E04C0E9FF71
:1000980005C0EAFF010EEE24006E000EEE20016E90
:1000A800000EEE20026E000EEE20036E04C0E1FF8B
:1000B80005C0E2FF00C0E6FF01C0E6FF02C0E6FFA0
:1000C80003C0E6FF04C0E9FF05C0EAFFEECF00F079
:1000D800EECF01F0EECF02F0EECF03F000500110AA
:1000E8000210031010E1090E006E000E016E89C0A7
:1000F80004F0000E056E92DA290E0024E16E000E5F
:100108000120E26EE698892B98D71CC000F01BC02E
:1001180001F01AC002F019C003F018C004F017C0AB
:1001280005F016C008F015C009F01DC0E9FF1EC093
:0C013800EAFF1FC0E1FF20C0E2FF110041
:0A014400210E0D6E0D2EFED71200E5
:10014E000F0E0C6E470E0D6E0D2EFED70C2EFCD71D
:06015E0000000000120089
:0601640000000000120083
:10016A00000188BF02D0819601D0818688BD02D065
:10017A00819401D0818488BB02D0819201D081828E
:10018A0088B902D0819001D0818076B102D081886D
:10019A0001D08198818AE1DF819A88B702D081965D
:1001AA0001D0818688B502D0819401D0818488B338
:1001BA0002D0819201D0818288B102D0819001D08F
:1001CA00818076B102D0818801D08198818AC5DF89
:0E01DA00819A76A102D0B6DF01D0AFDF12000D
:0A01E80026C0E9FF27C0EAFF12005D
:0E01F2000001769187C088F0B7DF7681120099
:1002000006005490F1DFFDCFECFFFECFECFFFFCFF7
:10021000ECFF289628A8289A000179A101D0288A05
:020220001200CA
:10022200086A096A100E0C6E013408360936045049
:10023200085E0550D8A0053C095ED8B007D004502E
:1002420008260550D8B0053C0926D890003601365C
:060252000C2EEAD7120099
:0C0258000E0E0D6E0D2EFED700001200E1
:100264000001846B050E845D0AE284518225E16EEF
:10027400000E8321E26E200EE66E842BF3D78451A8
:100284008225E16E000E8321E26EE66A84078451C2
:100294008225856F000E8321866F0A0E046E000E80
:1002A400056E80C000F081C001F0B9DF08C000F025
:1002B40009C001F0300E002685C0E1FF86C0E2FFD0
:1002C40000C0E6FF0A0E046E000E056E80C000F04A
:1002D40081C001F0A4DF00C080F001C081F0000EF5
:1002E400011802E1000E001801E102D08407CFD703
:0202F4001200F6
:1002F600289A26C0E1FF27C0E2FFE6980001805158
:1003060081118211831146E0FF0E8019006EFF0EE7
:100316008119016EFF0E8219026EFF0E8319036E9C
:1003260000C080F001C081F002C082F003C083F0FB
:10033600010E0024046E000E0120056E000E022040
:10034600066E000E0320076E04C080F005C081F023
:1003560006C082F007C083F026C000F027C001F077
:10036600050E0024E16E000E0120E26E04C0E6FFD9
:1003760005C0E6FF06C0E6FF07C0E6FF26C0E1FFB0
:1003860027C0E2FFE68626C0E1FF27C0E2FFE68837
:06039600288828861200F1
:10039C00939A93989390939293949396819A81982D
:1003AC008196819481928190CCDECBDECADE8182F3
:1003BC008180818AD1DE819AC4DE818ACDDE819AE8
:1003CC00C0DE818AC9DE819ABCDE8190818AC4DE5E
:1003DC00819AB7DE818AC0DE819A81928186818A78
:1003EC00BBDE819AAEDE81968180818AB5DE819AF0
:1003FC008190818AB1DE819AA4DE818AADDE819AF8
:10040C008180818AA9DE819A9CDE8190818AA4DE1A
:10041C00819A8186818481828180818A9DDE819A04
:08042C0090DE00017681120050
:10043400C26A231C006E0050C1160F0EC012C08E7B
:1004440080C000F000360090003600900050C212C8
:10045400C28000DFC282C2A201D0FDD7C4CF01F0A6
:10046400006A00C081F001C082F0C3500012000E87
:10047400011200C081F001C082F0C290000E00148D
:10048400026E0150800B036E000E031802E1000E91
:10049400021803E00001816B826B81C000F082C00E
:0404A40001F0120051
:0804A8000001796BA9DE1200CE
:1004B00010D0800E0001806F1AD0C00E806F17D050
:1004C000940E806F14D0D40E806F11D0800E806F88
:1004D0000ED000018051010AECE08051020AEDE0EB
:1004E0008051030AEDE08051040AEDE0EFD7810569
:1004F000006E8051002600C080F000C088F035DE1C
:100500007691846B84518225E96E000E8321EA6E18
:10051000EE520BE084518225E96E000E8321EA6ED3
:0E052000EECF87F066DE842BEDD776811200D9
:10052E00549A5BDE0001805307E028A603D028987A
:10053E00EF980BD0288601D0289628B805D028AA87
:0C054E0003D02886548A01D00600120059
:10055A0046DEFDCFECFFFECFECFFFFCFECFF288697
:04056A000600120075
:10056E003CDEEECF28F00500EE50FD6EEE50FE6E36
:08057E00EE50FF6E12001200A6
:10058600556A000E566E000E576E0001806B4FDFE7
:1005960000C080F001C081F0580E0001826F000E8D
:1005A600836F5DDE55A011D07CDF0000010E55146F
:1005B600806F8053010ED8A4000E806F8051000A10
:1005C600000ED8A4010E806FAFDF010E556E580ED7
:1005D600566E000E576E65DF0000010E5514806FD3
:1005E6008053010ED8A4000E806F8051000A000EC1
:1005F600D8A4010E806F98DF320E806F000E816FD7
:0E060600826F836F75DEA6DF0000BFD7120083
:100614000900F5CFE6FF0006FBE10106F9E112004F
:100624000B6A0A6A096A00500402F4CF09F0F3CF96
:1006340008F001500502F4CF0BF0F3CF0AF000509C
:100644000502F3500926F4500A22E86A0B220150ED
:100654000402F3500926F4500A22E86A0B2208C067
:1006640000F009C001F00AC002F00BC003F0120050
:100674004D0EBA6E310EBB6EF28EF28CD08E9D8210
:060684009F82BA841200FF
:10068A00546A440E246E000E256E00017A6B299C72
:08069A00329C3B9C449C1200C1
:1006A2007CDE010E886F60DD0C0E886F5DDD12004E
:1006B2005492290E016E000E026E0001796B01C088
:1006C200E9FF02C0EAFFEECF00F000BC2AD07B8D2A
:1006D2007B87010E0124E16E000E0220E26E7CC0D7
:1006E200E6FF7DC0E6FF7EC0E6FF7FC0E6FF050EA7
:1006F2000124E16E000E0220E26EE66AE66AE66A14
:10070200E66A01C0E1FF02C0E2FF7BC0E6FF0250E1
:10071200271802E12650011802E17BC028F054920A
:1007220009D0090E0126000E0222792B040E795DF2
:06073200C6E35482120030
:10073800516A000E526E000E536E020E0001806F59
:1007480075DE00C080F001C081F06C0E0001826F80
:10075800000E836F83DD51A011D0A2DE0000010ED0
:100768005114806F8053010ED8A4000E806F805101
:10077800000A000ED8A4010E806FD5DE010E516E5E
:100788006C0E526E000E536E8BDE0000010E51147B
:10079800806F8053010ED8A4000E806F8051000A2C
:1007A800000ED8A4010E806FBEDE320E806F000EE0
:1007B800816F826F836F9BDDCCDE0000BED7120095
:1007C8004E6A000E4F6E000E506E010E0001806FD3
:1007D8002DDE00C080F001C081F0620E0001826F42
:1007E800000E836F3BDD4EA011D05ADE0000010ED3
:1007F8004E14806F8053010ED8A4000E806F805174
:10080800000A000ED8A4010E806F8DDE010E4E6E18
:10081800620E4F6E000E506E43DE0000010E4E1445
:10082800806F8053010ED8A4000E806F8051000A9B
:10083800000ED8A4010E806F76DE320E806F000E97
:10084800816F826F836F53DD84DE0000BED7120094
:100858008C70E80E0001806F030E816F000E826FAE
:0C086800836F45DD76DE0000F3D7120040
:100874000F01386B396B3A6B3B6B3C6B956A836A3F
:0A08840096809682070E926E120015
:10088E0055A00FD056C07BF057C07CF0556A010EB4
:10089E000001806F010E816F7BC082F07CC083F0FF
:1008AE0000DE4EA00FD000014FC07BF050C07CF098
:1008BE004E6A010E806F0A0E816F7BC082F07CC083
:1008CE0083F0EFDD51A00FD0000152C07BF053C07A
:1008DE007CF0516A020E806F010E816F7BC082F038
:1008EE007CC083F0DEDD0001140E806F000E816F80
:0E08FE00826F836FF9DC2ADE0000C2D7120081
:10090C004EEC05F0B1DFB0DEC6DEB9DE7B6B860ED9
:10091C007C6F050E7D6F000E7E6F000E7F6FC3DE49
:10092C00010E7B6FC80E7C6F070E7D6F000E7E6F05
:10093C00000E7F6FB8DE020E7B6F380E7C6F070ED9
:10094C007D6F000E7E6F000E7F6FADDE030E7B6F32
:10095C00580E7C6F080E7D6F000E7E6F000E7F6F41
:10096C00A2DE040E7B6F8E0E7C6F080E7D6F000E68
:10097C007E6F000E7F6F97DEF28ED0BEF28C549895
:10098C005486080E4D6E24C026F025C027F0000EAC
:10099C00275C02E1440E265C05E3290E266E000E50
:1009AC00276E0AD0090E2624006E000E2720016E39
:1009BC0000C026F001C027F026C0E9FF27C0EAFFDF
:1009CC00010E006E280EE16E000EE26EEECFE6FF19
:1009DC000006FCE128AC03D028BE01D001D02FD0FA
:1009EC0028C000F0070E001600C079F04D50795D5C
:1009FC0001E325D028B60DD0B4DDF4EC00F0D70E11
:100A0C00EF16280E2814006E0050EF1254B601D0C9
:100A1C003BD028A803D028BA01D011D028A60FD0DB
:100A2C00548826C077F027C078F028C000F0070E55
:100A3C00001600C04DF04D50000A01E107D02750C0
:100A4C00251802E12450261801E0A1D754A81CD087
:100A5C00549677C026F078C027F026C024F027C023
:100A6C0025F026C0E9FF27C0EAFF010E006E280E14
:100A7C00E16E000EE26EEECFE6FF0006FCE128AC64
:0C0A8C0003D028BE01D0B8D77AD7FFD71E
:100A9C0010EE21F0030E006E010E016E980EF66E34
:0E0AAC000A0EF76E000EF86E0AEC03F0120050
:020A980000005C
:010A9A000F4C
:020000040030CA
:0D000100231F3CFFBF81FF0FC00FE00F4029
:00000001FF
