:04000000EAEF03F030
:1000080000C01BF001C01AF002C019F003C018F0BC
:1000180004C017F005C016F006C015F0E1CF1EF0B9
:10002800E2CF1FF0E9CF1CF0EACF1DF09EA2B9D0B5
:100038009E920001606B040E605D65E2090E006E21
:10004800000E016E60C004F0000E056E93DA260EF5
:100058000024E96E000E0120EA6EEECF00F000A841
:1000680050D0090E006E000E016E60C004F0000E44
:10007800056E80DA260E0026000E0122050E0024E9
:10008800046E000E0120056E04C0E9FF05C0EAFFFA
:10009800010EEE24006E000EEE20016E000EEE2022
:1000A800026E000EEE20036E04C0E1FF05C0E2FF01
:1000B80000C0E6FF01C0E6FF02C0E6FF03C0E6FF9E
:1000C80004C0E9FF05C0EAFFEECF00F0EECF01F073
:1000D800EECF02F0EECF03F0005001100210031033
:1000E80010E1090E006E000E016E60C004F0000EF3
:1000F800056E40DA260E0024E16E000E0120E26E45
:10010800E698602B98D7616B020E615D4AE261C088
:1001180000F0000E016E00360090013600360090A7
:1001280001364D0E0024E96E000E0120EA6EEECF76
:1001380004F0EECF05F0EECF06F0EECF07F007AEF5
:100148002ED061C000F0000E016E0036009001361E
:100158000036009001364D0E0024046E000E01207A
:10016800056E04C0E9FF05C0EAFFEECF00F0EECF50
:1001780001F0EECF02F0EECF03F0010E0026000EE4
:1001880001220222032204C0E1FF05C0E2FF00C0F1
:10019800E6FF01C0E6FF02C0E6FF03C0E6FF612BF1
:1001A800B3D71BC000F01AC001F019C002F018C084
:1001B80003F017C004F016C005F015C006F01CC007
:1001C800E9FF1DC0EAFF1EC0E1FF1FC0E2FF1100EA
:0A01D80055C0E9FF56C0EAFF12000F
:0601E20000000000120005
:1001E8000F0E0C6E470E0D6E0D2EFED70C2EFCD783
:0601F800000000001200EF
:0A01FE00210E0D6E0D2EFED712002B
:1002080006004C90E5DFFDCFECFFFECFECFFFFCF03
:0E021800ECFF4A964AA84A9A25B04A8A12007C
:100226004C9AD7DF5F5207E04AA603D04A98EF9868
:100236000BD04A8601D04A964AB805D04AAA03D0BE
:0A0246004A864C8A01D0060012001F
:100250004C92036A035000083FE3240EE96E000E3F
:10026000EA6E0350E926D8B0EA2AEECF00F000C0CB
:1002700005F000522FE05FB002D0006A30D003C01A
:1002800004F0043604900436049004360490010E01
:10029000066E06500514006E04E106360690042A28
:1002A000F8D7240E016E000E026E03500126D8B05E
:1002B000022A061C006E01C0E9FF02C0EAFFEE50F0
:1002C000001601C0E1FF02C0E2FF00C0E6FF04C06B
:1002D00000F005D0032ABED74C82FF0E006E12003C
:1002E0005FC000F00032009E0032009E0032009E8F
:1002F000240E026E000E036E00500226D8B0032AB0
:10030000070E5F14006E00C001F0010E006E015078
:1003100004E000360090FF0FFBD702C0E9FF03C0E6
:10032000EAFFEE50001202C0E1FF03C0E2FF00C08E
:04033000E6FF1200D2
:06033400256A68DF1200DB
:10033A00939A93989390939293949396819A81988F
:10034A0081968194819281904ADF49DF48DF8182D8
:10035A008180818A41DF819A42DF818A3DDF819AE9
:10036A003EDF818A39DF819A3ADF8190818A34DFE0
:10037A00819A35DF818A30DF819A81928186818AEA
:10038A002BDF819A2CDF81968180818A25DF819AF1
:10039A008190818A21DF819A22DF818A1DDF819AF9
:1003AA008180818A19DF819A1ADF8190818A14DF1C
:1003BA00819A8186818481828180818A0DDF819AF6
:0603CA000EDF218012008D
:1003D0005FBE02D0819601D081865FBC02D081943D
:1003E00001D081845FBA02D0819201D081825FB84E
:1003F00002D0819001D0818021B002D0818801D0CB
:100400008198818AEEDE819A5FB602D0819601D012
:1004100081865FB402D0819401D081845FB202D022
:10042000819201D081825FB002D0819001D0818021
:1004300021B002D0818801D08198818AD2DE819A50
:0C04400021A002D0D1DE01D0DADE1200D3
:10044C00C5DEFDCFECFFFECFECFFFFCFECFF4A8605
:04045C000600120084
:10046000BBDEEECF4AF00500EE50FD6EEE50FE6EA4
:08047000EE50FF6E12001200B5
:100478004C92260E016E000E026E256A01C0E9FF3D
:1004880002C0EAFFEECF00F000BC2AD05A8C5A8690
:10049800010E0124E16E000E0220E26E5BC0E6FF51
:1004A8005CC0E6FF5DC0E6FF5EC0E6FF050E012406
:1004B800E16E000E0220E26EE66AE66AE66AE66A25
:1004C80001C0E1FF02C0E2FF5AC0E6FF0250561821
:1004D80002E15550011802E15AC04AF04C9209D085
:1004E800090E0126000E0222252A040E255CC6E309
:0404F8004C82120020
:1004FC00FF0E4D16FF0E4E16FF0E4F167F0E5016AA
:10050C009C0E4D6EFF0E4E6E4F6E506E50BE2CD02C
:10051C000BDF0000000E4D14006E000E4E14016E29
:10052C00000E4F14026E800E5014036E005001101A
:10053C0002100310010ED8A4000E5F6E5F50000A6B
:10054C00000ED8A4010E5F6E68DE8C70FF0E4D1687
:10055C00FF0E4E16FF0E4F167F0E50169C0E4D6E54
:10056C00FF0E4E6E4F6E506E6BDF0000CFD7120039
:10057C000B6A0A6A096A00500402F4CF09F0F3CF3F
:10058C0008F001500502F4CF0BF0F3CF0AF0005045
:10059C000502F3500926F4500A22E86A0B22015096
:1005AC000402F3500926F4500A22E86A0B2208C010
:1005BC0000F009C001F00AC002F00BC003F01200F9
:1005CC000900F5CFE6FF0006FBE10106F9E1120098
:1005DC004C6A410E586E000E596E030E246E576A0B
:0A05EC00269C2F9C389C419C1200B5
:1005F6005F6A2BDE0050FF0AD8B481D0010E5F6E11
:1006060024DE00C020F000C001F0000E026E0136AC
:10061600019002360136019002364D0E0124046E19
:10062600000E0220056E04C0E9FF05C0EAFFEECF0A
:1006360000F0EECF01F0EECF02F0EECF03F0FF0EAA
:100646000016FF0E0116FF0E02167F0E031604C0DB
:10065600E1FF05C0E2FF00C0E6FF01C0E6FF02C001
:10066600E6FF03C0E6FF20C000F0000E016E003674
:10067600009001360036009001364D0E0024E16EE2
:10068600000E0120E26E300EE66EF80EE66EFF0EEC
:10069600E66EE66E4CDE000020C000F0000E016E35
:1006A6000036009001360036009001364D0E0024CB
:1006B600E96E000E0120EA6EEECF00F0EECF01F0FB
:1006C600EECF02F0EECF03F0000E0016000E01167C
:1006D600000E0216800E03160050011002100310C1
:1006E600010ED8A4000E5F6E5F50000A000ED8A45B
:1006F600010E5F6E95DD8C7420C05FF0EEDDA3DE2B
:06070600000076D712008E
:10070C0016DE010E5F6E5EDE0C0E5F6E5BDE12009F
:10071C00FF0E5116FF0E5216FF0E53167F0E541677
:10072C000C0E516EFE0E526EFF0E536E546E54BE76
:10073C002DD0FADD0000000E5114006E000E521484
:10074C00016E000E5314026E800E5414036E005092
:10075C00011002100310010ED8A4000E5F6E5F5042
:10076C00000A000ED8A4010E5F6E57DD8C72FF0ECE
:10077C005116FF0E5216FF0E53167F0E54160C0E0A
:10078C00516EFE0E526EFF0E536E546E59DE00000B
:04079C00CED71200A2
:1007A0000F01386B396B3A6B3B6B3C6B956A836A14
:0E07B0009680968296808480968284821200C3
:1007BE004D0EBA6E310EBB6EF28EF28CD08E9D82C5
:0607CE009F82BA841200B4
:1007D400020E206EE3DFF1DF97DFFEDE5A6AFC0EC5
:1007E4005B6E040E5C6E000E5D6E000E5E6E42DE8D
:1007F4005A6A1C0E5B6E070E5C6E000E5D6E000E78
:100804005E6E38DE5A6AF60E5B6E050E5C6E000E86
:100814005D6E000E5E6E2EDEF28ED0BEF28C4C98B3
:100824004C86080E4B6E58C055F059C056F0000E59
:10083400565C02E1410E555C05E3260E556E000E32
:10084400566E0AD0090E5524006E000E5620016E15
:1008540000C055F001C056F055C0E9FF56C0EAFF8C
:10086400010E006E4A0EE16E000EE26EEECFE6FF60
:100874000006FCE14AAC03D04ABE01D001D02ED020
:100884004AC000F0070E001600C025F04B50255C4E
:1008940001E324D04AB60CD0E1DD9CDCD70EEF1680
:1008A400280E4A14006E0050EF124CB601D03BD013
:1008B4004AA803D04ABA01D011D04AA60FD04C8816
:1008C40055C022F056C023F04AC000F0070E0016AF
:1008D40000C04BF04B50000A01E107D056505918A4
:1008E40002E15850551801E0A2D74CA81CD04C96F0
:1008F40022C055F023C056F055C058F056C059F0E8
:1009040055C0E9FF56C0EAFF010E006E4A0EE16EC3
:10091400000EE26EEECFE6FF0006FCE14AAC03D027
:0A0924004ABE01D0B9D77BD7FFD738
:020000040030CA
:0D000100231F3CFFBF81FF0FC00FE00F4029
:00000001FF
