:04000000C0EF02F05B
:1000080000C01BF001C01AF002C019F003C018F0BC
:1000180004C017F005C016F00BC015F0E1CF1EF0B4
:10002800E2CF1FF0E9CF1CF0EACF1DF09EA26AD004
:100038009E92596A040E595C65E2090E006E000E24
:10004800016E59C004F0000E056E4ED9200E002432
:10005800E96E000E0120EA6EEECF00F000A850D045
:10006800090E006E000E016E59C004F0000E056EF8
:100078003BD9200E0026000E0122050E0024046E36
:10008800000E0120056E04C0E9FF05C0EAFF010E5D
:10009800EE24006E000EEE20016E000EEE20026EC1
:1000A800000EEE20036E04C0E1FF05C0E2FF00C0B1
:1000B800E6FF01C0E6FF02C0E6FF03C0E6FF04C09A
:1000C800E9FF05C0EAFFEECF00F0EECF01F0EECF7A
:1000D80002F0EECF03F0005001100210031010E1FF
:1000E800090E006E000E016E59C004F0000E056E78
:1000F800FBD8200E0024E16E000E0120E26EE69887
:10010800592A98D71BC000F01AC001F019C002F094
:1001180018C003F017C004F016C005F015C00BF0A6
:100128001CC0E9FF1DC0EAFF1EC0E1FF1FC0E2FFBF
:020138001100B4
:0A013A004AC0E9FF4BC0EAFF1200C3
:1001440006004890F8DFFDCFECFFFECFECFFFFCFB9
:0E015400ECFF479647A8479A46B0478A12002C
:10016200479A4AC0E1FF4BC0E2FFE698555056104D
:100172005710581046E0FF0E5518006EFF0E561825
:10018200016EFF0E5718026EFF0E5818036E00C064
:1001920055F001C056F002C057F003C058F0010EEE
:1001A2000024046E000E0120056E000E0220066E71
:1001B200000E0320076E04C055F005C056F006C0BD
:1001C20057F007C058F04AC000F04BC001F0050ECE
:1001D2000024E16E000E0120E26E04C0E6FF05C0BD
:1001E200E6FF06C0E6FF07C0E6FF4AC0E1FF4BC0DC
:1001F200E2FFE6864AC0E1FF4BC0E2FFE68847889D
:040202004786120019
:1002060099DFFDCFECFFFECFECFFFFCFECFF47867B
:0402160006001200CC
:10021A00489055C0E9FF56C0EAFF55C0E1FF56C0F5
:10022A00E2FFE62A55C0E9FF56C0EAFFEECF00F02A
:10023A00005207E155C0E1FF56C0E2FFFF0EE66E2D
:04024A0048801200D6
:06024E00466A79DF120090
:10025400489A71DF555207E047A603D04798EF98B4
:100264000BD0478601D0479647B805D047AA03D09C
:0A0274004786488A01D006001200F8
:10027E00E7DF00004950000A000ED8A4010E556EAB
:10028E005550000A000ED8A4010E556EDCDF49064B
:10029E008C84040E0B6E0C0E0C6E330E0D6E0D2E2A
:1002AE00FED70C2EFCD70B2EFAD7000000008C9434
:1002BE00F40E556E010E566E000E576E586E4ADFD6
:1002CE009BDF0000490E556E000E566E9FDF48B044
:1002DE0001D003D091DF0000F5D78EDF0000C8D724
:0202EE001200FC
:1002F0000B6A0A6A096A00500402F4CF09F0F3CFCE
:1003000008F001500502F4CF0BF0F3CF0AF00050D3
:100310000502F3500926F4500A22E86A0B22015024
:100320000402F3500926F4500A22E86A0B2208C09E
:1003300000F009C001F00AC002F00BC003F0120087
:1003400086DF00004950000A000ED8A4010E556E49
:100350005550000A000ED8A4010E556E7BDF4906E9
:100360008C82040E0B6E0C0E0C6E330E0D6E0D2E69
:10037000FED70C2EFCD70B2EFAD7000000008C9273
:10038000F40E556E010E566E000E576E586EE9DE75
:100390003ADF0000490E556E000E566E3EDF48B043
:1003A00001D003D030DF0000F5D72DDF0000C8D723
:0203B000120039
:1003B200C3DEEECF47F00500EE50FD6EEE50FE6E4E
:0803C200EE50FF6E1200120064
:1003CA004892200E016E000E026E466A01C0E9FFD5
:1003DA0002C0EAFFEECF00F000BC2AD0508C508653
:1003EA00010E0124E16E000E0220E26E51C0E6FF0A
:1003FA0052C0E6FF53C0E6FF54C0E6FF050E0124D3
:10040A00E16E000E0220E26EE66AE66AE66AE66AD3
:10041A0001C0E1FF02C0E2FF50C0E6FF02504B18E4
:10042A0002E14A50011802E150C047F0489209D04F
:10043A00090E0126000E0222462A040E465CC6E375
:04044A0048821200D2
:10044E00FFDE00004950000A000ED8A4010E556EC2
:10045E005550000A000ED8A4010E556EF4DE490662
:10046E008C80040E0B6E0C0E0C6E330E0D6E0D2E5C
:10047E00FED70C2EFCD70B2EFAD7000000008C9066
:10048E00F40E556E010E566E000E576E586E62DEED
:10049E00B3DE0000490E556E000E566EB7DE48B044
:1004AE0001D003D0A9DE0000F5D7A6DE0000C8D724
:0204BE0012002A
:1004C0000900F5CFE6FF0006FBE10106F9E11200A5
:1004D0000F01386B396B3A6B3B6B3C6B956A836AE7
:0204E000120008
:1004E200B5DE00004950000A000ED8A4010E556E78
:1004F2005550000A000ED8A4010E556EAADE490618
:100502008C86040E0B6E0C0E0C6E330E0D6E0D2EC1
:10051200FED70C2EFCD70B2EFAD7000000008C96CB
:10052200F40E556E010E566E000E576E586E18DEA2
:1005320069DE0000490E556E000E566E6DDE48B043
:1005420001D003D05FDE0000F5D75CDE0000C8D723
:02055200120095
:10055400486A3B0E446E000E456E4D6A209C299CF1
:06056400329C3B9C1200DA
:10056A004D0EBA6E310EBB6EF28EF28CD08E9D821B
:06057A009F82BA8412000A
:10058000A7DFF3DFE7DF506A4E0E516E040E526EA6
:10059000000E536E000E546E18DF010E506E400EAA
:1005A000516E030E526E000E536E000E546E0DDF30
:1005B000020E506E7E0E516E020E526E000E536E83
:1005C000000E546E02DF030E506EE20E516E040EEA
:1005D000526E000E536E000E546EF7DE496A010E25
:1005E000496EF28ED0BEF28C48984886080E4C6E4A
:1005F00048A401D019D044C04AF045C04BF0000EC9
:100600004B5C02E13B0E4A5C05E3200E4A6E000E95
:100610004B6E0AD0090E4A24006E000E4B20016E6C
:1006200000C04AF001C04BF04AC0E9FF4BC0EAFFEE
:10063000010E006E470EE16E000EE26EEECFE6FF99
:100640000006FCE147AC03D047BE01D001D02ED05C
:1006500047C000F0070E001600C046F04C50465C44
:1006600001E324D047B60CD0A4DE67DDD70EEF1629
:10067000280E4714006E0050EF1248B601D03DD04E
:1006800047A803D047BA01D011D047A60FD0488859
:100690004AC04EF04BC04FF047C000F0070E0016A6
:1006A00000C04CF04C50000A01E109D048B407D01A
:1006B0004B50451802E144504A1801E0A0D748A821
:1006C0001CD048964EC04AF04FC04BF04AC044F090
:1006D0004BC045F04AC0E9FF4BC0EAFF010E006E77
:1006E000470EE16E000EE26EEECFE6FF0006FCE183
:0E06F00047AC03D047BE01D0B7D776D7FFD7AF
:020000040030CA
:0D000100231F3CFFBF81FF0FC00FE00F4029
:00000001FF
