:0400000045EF06F0D2
:1000080000C01EF001C01DF002C01CF003C01BF0B0
:1000180004C01AF005C019F008C018F009C017F09C
:100028000AC016F00BC015F0E1CF23F0E2CF24F0A0
:10003800E9CF21F0EACF22F0F3CF1FF0F4CF20F080
:100048009EA26ED09E920001936B040E935D68E2AF
:10005800090E006E000E016E93C004F0000E056ECE
:1000680066EC05F02D0E0024E96E000E0120EA6E04
:10007800EECF00F000A852D0090E006E000E016EFF
:1000880093C004F0000E056E66EC05F02D0E0026F8
:10009800000E0122050E0024046E000E0120056EDC
:1000A80004C0E9FF05C0EAFF010EEE24006E000E51
:1000B800EE20016E000EEE20026E000EEE20036EA2
:1000C80004C0E1FF05C0E2FF00C0E6FF01C0E6FF93
:1000D80002C0E6FF03C0E6FF04C0E9FF05C0EAFF6F
:1000E800EECF00F0EECF01F0EECF02F0EECF03F04E
:1000F800005001100210031011E1090E006E000EED
:10010800016E93C004F0000E056E66EC05F02D0E2E
:100118000024E16E000E0120E26EE698932B95D73D
:100128001FC0F3FF20C0F4FF1EC000F01DC001F087
:100138001CC002F01BC003F01AC004F019C005F07F
:1001480018C008F017C009F016C00AF015C00BF067
:1001580021C0E9FF22C0EAFF23C0E1FF24C0E2FF7B
:02016800110084
:10016A000F0E0C6E470E0D6E0D2EFED70C2EFCD701
:06017A000000000012006D
:0A018000210E0D6E0D2EFED71200A9
:06018A000000000012005D
:080190000AAE029E000E1200EF
:0A0198002AC0E9FF2BC0EAFF1200A5
:1001A200000192BF02D0819601D0818692BD02D019
:1001B200819401D0818492BB02D0819201D081824C
:1001C20092B902D0819001D0818076B102D081882B
:1001D20001D08198818AD8DF819A92B702D0819624
:1001E20001D0818692B502D0819401D0818492B3EC
:1001F20002D0819201D0818292B102D0819001D04D
:10020200818076B102D0818801D08198818ABCDF59
:0E021200819A76A102D0A8DF01D0B1DF1200E0
:0E022000026A016A006A086A036A000E120090
:10022E000B840BAE22EF01F0010E036E026A016A1F
:0A023E00006A0A360232FF0E1200B9
:100248000B800BAE30EF01F0026A0AAEFF0E026EB1
:0C025800016E006E0A360232FF0E12002A
:100264000B820BAE3CEF01F0036802680168006882
:080274000A360232FF0E1200EF
:10027C00060000016B918ADFFDCFECFFFECFECFF97
:10028C00FFCFECFF2C962CA82C9A83A101D02C8AA2
:02029C0012004E
:10029E00086A096A100E0C6E0134083609360450CD
:1002AE00085E0550D8A0053C095ED8B007D00450B2
:1002BE0008260550D8B0053C0926D89000360136E0
:0602CE000C2EEAD712001D
:1002D4000C6A0E6A0250D8A483EF01F001C002F048
:1002E40000C001F0006A0E860250D8A483EF01F02A
:1002F40001C002F0016A0E960E880250D8B495EF40
:1003040001F00E50035ED8A4D8A09AEF01F0D89063
:1003140002BE9FEF01F0003601360236032E8AEF4B
:1003240001F09AEF01F0010E0C6E78DFA2EF01F0FC
:10033400020E0C6E7ADFA2EF01F0040E0C6E26DFC3
:020344001200A5
:0C0346000E0E0D6E0D2EFED700001200F2
:0E0352000001769191C092F023DF76811200B7
:1003600010D0800E00018A6F1AD0C00E8A6F17D08D
:10037000940E8A6F14D0D40E8A6F11D0800E8A6FBB
:100380000ED000018A51010AECE08A51020AEDE028
:100390008A51030AEDE08A51040AEDE0EFD78B059C
:1003A000006E8A51002600C08AF000C092F0F9DE8B
:1003B00076918E6B8E518C25E96E000E8D21EA6E42
:1003C000EE520BE08E518C25E96E000E8D21EA6E07
:0E03D000EECF91F0BEDF8E2BEDD776811200BE
:1003DE0000016B9BDADE8A5307E02CA603D02C9823
:1003EE00EF980BD02C8601D02C962CB805D02CAAC9
:0C03FE0003D02C866B8B01D0060012008F
:10040A00C6DEFDCFECFFFECFECFFFFCFECFF2C8664
:04041A0006001200C6
:10041E00939A93989390939293949396819A8198AA
:10042E00819681948192819099DE98DE97DE818209
:10043E008180818AA3DE819A91DE818A9FDE819AF4
:10044E008DDE818A9BDE819A89DE8190818A96DE9D
:10045E00819A84DE818A92DE819A81928186818A56
:10046E008DDE819A7BDE81968180818A87DE819AFC
:10047E008190818A83DE819A71DE818A7FDE819A04
:10048E008180818A7BDE819A69DE8190818A76DE27
:10049E00819A8186818481828180818A6FDE819AB0
:0804AE005DDE00017681120001
:1004B600030E006E040EE16E000EE26E8AC0E9FFC6
:1004C6008BC0EAFFEECFE6FF0006FCE100016B9170
:1004D6000450051822E1030E8A25E96E000E8B21D1
:1004E600EA6E06C000F0000E016E0036009001367E
:1004F6000050EE24E16E0150EE20E26E8CC0E6FF65
:100506008DC0E6FF0650010F006E00C006F00650D3
:100516000418D8B4066A6B8134D006C000F0000E09
:10052600016E05500024026E000E0120036E02C00B
:1005360007F003C008F0000E035C02E10450025C01
:1005460004E30450075E000E085A030E8A25E96E7E
:10055600000E8B21EA6E07C000F008C001F00036DD
:10056600009001360050EE24E16E0150EE20E26E5E
:100576008CC0E6FF8DC0E6FF0550010F006E00C07F
:1005860005F0030E006E8AC0E1FF8BC0E2FF040E89
:10059600E96E000EEA6EEECFE6FF0006FCE1120001
:1005A60000018E6B050E8E5D0AE28E518C25E16E82
:1005B600000E8D21E26E200EE66E8E2BF3D78E5145
:1005C6008C25E16E000E8D21E26EE66A8E078E5155
:1005D6008C258F6F000E8D21906F0A0E046E000E13
:1005E600056E8AC000F08BC001F056DE08C000F030
:1005F60009C001F0300E00268FC0E1FF90C0E2FF77
:1006060000C0E6FF0A0E046E000E056E8AC000F0FA
:100616008BC001F041DE00C08AF001C08BF0000EF5
:10062600011802E1000E001801E102D08E07CFD7B3
:020636001200B0
:080638000001836B1FDE1200BC
:10064000086A096A000E07620364A5EF03F002500E
:1006500006180A6E075003267E0ED8A036EF03F068
:10066000035ED8B0A9EF03F03AEF03F0035ED8A021
:10067000ADEF03F0028E068E02C00EF001C00BF04B
:1006800000C00DF000500402F4CF0CF00150050240
:10069000F4CF00F0F3CF08F00402F3500C26F4502E
:1006A0000822000E00220D500502F3500C26F450D3
:1006B0000822000E002202500402F3500826F450D3
:1006C000002202500502016A000E0122F3500026AA
:1006D000F45001220D500602F3500826F450002277
:1006E000026A000E012202220B500602F35000267D
:1006F000F4500122000E02220E500602F350012691
:10070000F450022202BE8DEF03F0083600360136A7
:1007100002360306D8B4ADEF03F0A0EF03F0D880A3
:10072000800E08640030000E002201220222D8A0B0
:10073000A0EF03F0023201320032034AA9EF03F0C6
:100740000AAE029E000EAFEF03F0010E69DDAFEFBF
:1007500003F0020E87DDAFEF03F0040E68DD120038
:100760000B6A0350D8B4F6EF03F002500A6E028E03
:100770008E0E035E03AEFAEF03F0036C080E035C0B
:10078000D8A0D5EF03F0036E013602C001F0026A73
:10079000080E035CD8A0D5EF03F0036E0136016AA2
:1007A0000350D8A4D890DFEF03F00350D8B4DFEFA4
:1007B00003F0D89002320132032ED9EF03F00BBCC4
:1007C00001A0ECEF03F0D8A0ECEF03F0012AD8B4BD
:1007D000022A02BE09EF04F00AAE0EEF04F0021E78
:1007E000011E012AD8B4022A0EEF04F0026A016A3F
:1007F0000EEF04F00B800BAE12EF04F0026A0AAEAB
:1008000012EF04F0FF0E026E016E0A36023212EF92
:1008100004F0010E0C6E18DD14EF04F0000E0C6EE7
:1008200014EF04F0FF0E0C6E0150006E0250016ECA
:020830001200B4
:10083200030E006E050EE16E000EE26E8AC0E9FF45
:100842008BC0EAFFEECFE6FF0006FCE107C008F02E
:100852000750010F006E00C007F00550075CD8B0CA
:10086200076A0604006E00C006F0030E006E8AC01E
:10087200E1FF8BC0E2FF050EE96E000EEA6EEECFDD
:10088200E6FF0006FCE1030E00018A25E96E000E78
:100892008B21EA6EEECF03F0EECF04F008C000F039
:1008A200000E016E00360090013600500324E96EFE
:1008B20001500420EA6EEECF00F0EECF01F01200FC
:1008C2002C9A2AC0E1FF2BC0E2FFE69800018A5170
:1008D2008B118C118D1146E0FF0E8A19006EFF0EEE
:1008E2008B19016EFF0E8C19026EFF0E8D19036EAD
:1008F20000C08AF001C08BF002C08CF003C08DF002
:10090200010E0024046E000E0120056E000E02206E
:10091200066E000E0320076E04C08AF005C08BF03D
:1009220006C08CF007C08DF02AC000F02BC001F089
:10093200050E0024E16E000E0120E26E04C0E6FF07
:1009420005C0E6FF06C0E6FF07C0E6FF2AC0E1FFDA
:100952002BC0E2FFE6862AC0E1FF2BC0E2FFE68859
:060962002C882C86120017
:10096800C26A271C006E0050C1160F0EC012C08E3E
:100978008AC000F000360090003600900050C21285
:10098800C280DDDCC282C2A201D0FDD7C4CF01F093
:10099800006A00C08BF001C08CF0C3500012000E3A
:1009A800011200C08BF001C08CF0C290000E001440
:1009B800026E0150800B036E000E031802E1000E58
:1009C800021803E000018B6B8C6B8BC000F08CC0AD
:0409D80001F0120018
:1009DC0000C008F00150006E016A026A036A0B6ADB
:1009EC000C6A016A026A036A960E036E0A6A00AE0A
:1009FC0006EF05F0081E001E082AD8B4002A0A8E3D
:100A0C0000C001F008C000F0086A026A5DDC120048
:100A1C000900F5CFE6FF0006FBE10106F9E1120043
:100A2C0000016B932D0E016E000E026E836B01C0E4
:100A3C00E9FF02C0EAFFEECF00F000BC2AD0858DA2
:100A4C008587010E0124E16E000E0220E26E86C045
:100A5C00E6FF87C0E6FF88C0E6FF89C0E6FF050E0B
:100A6C000124E16E000E0220E26EE66AE66AE66A96
:100A7C00E66A01C0E1FF02C0E2FF85C0E6FF02505A
:100A8C002B1802E12A50011802E185C02CF06B935F
:100A9C0009D0090E0126000E0222832B040E835D61
:060AAC00C6E36B8312009B
:100AB200CCEC00F0EECF2CF00500EE50FD6EEE50C7
:0A0AC200FE6EEE50FF6E12001200EF
:100ACC000B6A0A6A096A00500402F4CF09F0F3CFEA
:100ADC0008F001500502F4CF0BF0F3CF0AF00050F0
:100AEC000502F3500926F4500A22E86A0B22015041
:100AFC000402F3500926F4500A22E86A0B2208C0BB
:100B0C0000F009C001F00AC002F00BC003F01200A3
:100B1C0000018A6B23DF5CDFD00E046E3F0E056E86
:100B2C007F0E066E7C0E076E85DD14DE00C08AF02B
:100B3C0001C08BF06C0E00018C6F000E8D6F2DDDE3
:100B4C006651651920E06651651914E16FDD0000EE
:100B5C0066516519010ED8A4000E8A6F8A53010ED6
:100B6C00D8A4000E8A6F8A51000A000ED8A4010E78
:100B7C008A6F2FDC650E8A6F000E8B6F6C0E8C6F7C
:100B8C00000E8D6F92DCC80E8A6F000E8B6F8C6F0F
:0C0B9C008D6F91DE34DC0000BBD712002E
:100BA80000016B6B480E286E000E296E846B2D9C1D
:080BB800369C3F9C489C120092
:100BC0000001665324E0650E8A6F000E8B6F31DEE4
:100BD000010E8A6F010E8B6F00C08CF001C08DF08A
:100BE000B0EC01F025C08AF026C08BF0770E8C6F38
:100BF000000E8D6FD8DC254A262A020E8A6F010E60
:100C00008B6F770E8C6F000E8D6FB0EC01F0140EB1
:100C10008A6F000E8B6F8C6F8D6F53DE05EC02F0C8
:060C20000000CED7120017
:100C26008C70E80E00018A6F030E8B6F000E8C6FBE
:0E0C36008D6F44DE05EC02F00000F2D71200D4
:100C44000F01386B396B3A6B3B6B3C6B956A836A6B
:0A0C540096809682070E926E120041
:100C5E000FEC02F0010E926FD1EC00F00C0E926FC1
:060C6E00D1EC00F01200C1
:100C74004D0EBA6E310EBB6EF28EF28CD08E9D820A
:060C84009F82BA841200F9
:100C8A0002EC07F0DADFF1DFE5DF89DF856B1C0EA6
:100C9A00866F0B0E876F000E886F000E896FC1DE9C
:100CAA00856B260E866F0C0E876F000E886F000EFE
:100CBA00896FB7DE856BC00E866F0B0E876F000ECD
:100CCA00886F000E896FADDE0A0E656F676B666B03
:100CDA00510E686F000E696FF28ED0BEF28C6B995E
:100CEA006B87080E6A6F6BA501D019D028C02AF04D
:100CFA0029C02BF0000E2B5C02E1480E2A5C05E3AA
:100D0A002D0E2A6E000E2B6E0AD0090E2A24006EB2
:100D1A00000E2B20016E00C02AF001C02BF02AC061
:100D2A00E9FF2BC0EAFF010E006E2C0EE16E000EE9
:100D3A00E26EEECFE6FF0006FCE12CAC03D02CBE3F
:100D4A0001D001D02FD02CC000F0070E001600C031
:100D5A0083F06A51835D01E325D02CB60DD0A4DE61
:100D6A00CCEC00F0D70EEF16280E2C14006E0050B3
:100D7A00EF126BB701D03DD02CA803D02CBA01D00A
:100D8A0011D02CA60FD06B892AC081F02BC082F01B
:100D9A002CC000F0070E001600C06AF06A51000A63
:100DAA0001E109D06BB507D02B50291802E1285070
:100DBA002A1801E09FD76BA91CD06B9781C02AF033
:100DCA0082C02BF02AC028F02BC029F02AC0E9FFE4
:100DDA002BC0EAFF010E006E2C0EE16E000EE26ED1
:100DEA00EECFE6FF0006FCE12CAC03D02CBE01D00E
:060DFA00B6D775D7FFD744
:100E040010EE25F0030E006E010E016E000EF66E5C
:0E0E14000E0EF76E000EF86E0EEC05F01200DA
:020E00000000F0
:010E02000FE0
:020000040030CA
:0D000100231F3CFFBF81FF0FC00FE00F4029
:00000001FF
