:040000005EEF05F0BA
:1000080000C01EF001C01DF002C01CF003C01BF0B0
:1000180004C01AF005C019F008C018F009C017F09C
:100028000AC016F00BC015F0E1CF23F0E2CF24F0A0
:10003800E9CF21F0EACF22F0F3CF1FF0F4CF20F080
:100048009EA26BD09E9200019E6B040E9E5D65E29F
:10005800090E006E000E016E9EC004F0000E056EC3
:100068000CDB380E0024E96E000E0120EA6EEECF9C
:1000780000F000A850D0090E006E000E016E9EC060
:1000880004F0000E056EF9DA380E0026000E012283
:10009800050E0024046E000E0120056E04C0E9FF61
:1000A80005C0EAFF010EEE24006E000EEE20016E80
:1000B800000EEE20026E000EEE20036E04C0E1FF7B
:1000C80005C0E2FF00C0E6FF01C0E6FF02C0E6FF90
:1000D80003C0E6FF04C0E9FF05C0EAFFEECF00F069
:1000E800EECF01F0EECF02F0EECF03F0005001109A
:1000F8000210031010E1090E006E000E016E9EC082
:1001080004F0000E056EB9DA380E0024E16E000E18
:100118000120E26EE6989E2B98D71FC0F3FF20C0FF
:10012800F4FF1EC000F01DC001F01CC002F01BC08F
:1001380003F01AC004F019C005F018C008F017C081
:1001480009F016C00AF015C00BF021C0E9FF22C063
:0C015800EAFF23C0E1FF24C0E2FF110019
:0A016400210E0D6E0D2EFED71200C5
:10016E000F0E0C6E470E0D6E0D2EFED70C2EFCD7FD
:06017E0000000000120069
:0601840000000000120063
:0A018A005DC0E9FF5EC0EAFF12004D
:1001940000019DBF02D0819601D081869DBD02D011
:1001A400819401D081849DBB02D0819201D081824F
:1001B4009DB902D0819001D0818074B102D0818830
:1001C40001D08198818ADCDF819A9DB702D0819623
:1001D40001D081869DB502D0819401D081849DB3E4
:1001E40002D0819201D081829DB102D0819001D050
:1001F400818074B102D0818801D08198818AC0DF66
:0E020400819A74A102D0B1DF01D0AADF1200EE
:0E021200000174919CC09DF0BCDF748112004D
:1002200006005C90B2DFFDCFECFFFECFECFFFFCF0E
:10023000ECFF349634A8349A00018AA101D0348AA4
:020240001200AA
:0C0242000E0E0D6E0D2EFED700001200F7
:10024E00086A096A100E0C6E01340836093604501D
:10025E00085E0550D8A0053C095ED8B007D0045002
:10026E0008260550D8B0053C0926D8900036013630
:06027E000C2EEAD712006D
:1002840010D0800E0001956F1AD0C00E956F17D054
:10029400940E956F14D0D40E956F11D0800E956F77
:1002A4000ED000019551010AECE09551020AEDE0EF
:1002B4009551030AEDE09551040AEDE0EFD7960558
:1002C400006E9551002600C095F000C09DF060DFDF
:1002D4007491996B99519725E96E000E9821EA6EF5
:1002E400EE520BE099519725E96E000E9821EA6EC3
:0E02F400EECF9CF08CDF992BEDD774811200B9
:100302005C9A42DF0001955307E034A603D034988B
:10031200EF980BD0348601D0349634B805D034AA85
:0C03220003D034865C8A01D00600120073
:10032E000001996B050E995D0AE299519725E16ED0
:10033E00000E9821E26E200EE66E992BF3D799519E
:10034E009725E16E000E9821E26EE66A99079951A3
:10035E0097259A6F000E98219B6F0A0E046E000E61
:10036E00056E95C000F096C001F06ADF08C000F07F
:10037E0009C001F0300E00269AC0E1FF9BC0E2FFDB
:10038E0000C0E6FF0A0E046E000E056E95C000F06A
:10039E0096C001F055DF00C095F001C096F0000E3A
:1003AE00011802E1000E001801E102D09907CFD723
:0203BE0012002B
:1003C000E4DEFDCFECFFFECFECFFFFCFECFF348689
:0403D0000600120011
:0803D40000018A6B23DF120017
:1003DC00939A93989390939293949396819A8198ED
:1003EC008196819481928190BCDEBBDEBADE8182E3
:1003FC008180818AC1DE819AB4DE818ABDDE819AD8
:10040C00B0DE818AB9DE819AACDE8190818AB4DE5D
:10041C00819AA7DE818AB0DE819A81928186818A57
:10042C00ABDE819A9EDE81968180818AA5DE819ADF
:10043C008190818AA1DE819A94DE818A9DDE819AE7
:10044C008180818A99DE819A8CDE8190818A94DE0A
:10045C00819A8186818481828180818A8DDE819AD4
:08046C0080DE00017481120022
:10047400C26A331C006E0050C1160F0EC012C08E2B
:1004840095C000F000360090003600900050C21273
:10049400C280D5DEC282C2A201D0FDD7C4CF01F092
:1004A400006A00C096F001C097F0C3500012000E1D
:1004B400011200C096F001C097F0C290000E001423
:1004C400026E0150800B036E000E031802E1000E51
:1004D400021803E00001966B976B96C000F097C07A
:0404E40001F0120011
:1004E800349A5DC0E1FF5EC0E2FFE69800019551D5
:1004F80096119711981146E0FF0E9519006EFF0EA0
:100508009619016EFF0E9719026EFF0E9819036E69
:1005180000C095F001C096F002C097F003C098F0B3
:10052800010E0024046E000E0120056E000E02204C
:10053800066E000E0320076E04C095F005C096F005
:1005480006C097F007C098F05DC000F05EC001F0EB
:10055800050E0024E16E000E0120E26E04C0E6FFE5
:1005680005C0E6FF06C0E6FF07C0E6FF5DC0E1FF85
:100578005EC0E2FFE6865DC0E1FF5EC0E2FFE6889E
:06058800348834861200E5
:10058E00356A000E366E000E376E0001956B6BDF0E
:10059E0000C095F001C096F06A0E0001976F000E34
:1005AE00986FBEDE35A011D00EDF0000010E35149F
:1005BE00956F9553010ED8A4000E956F9551000AB4
:1005CE00000ED8A4010E956F95DE010E356E6A0EE3
:1005DE00366E000E376EF7DE0000010E3514956F85
:1005EE009553010ED8A4000E956F9551000A000E7A
:1005FE00D8A4010E956F7EDE320E956F000E966FAB
:0E060E00976F986F6ADFD5DE0000BFD712002D
:10061C000900F5CFE6FF0006FBE10106F9E1120047
:10062C005C6A530E00018B6F000E8C6F8D6B389CC7
:08063C00419C4A9C539C1200F2
:10064400CBDE010E9D6FA4DD0C0E9D6FA1DD1200AB
:100654004D0EBA6E310EBB6EF28EF28CD08E9D8230
:060664009F82BA8412001F
:10066A008FDDEECF34F00500EE50FD6EEE50FE6EDB
:08067A00EE50FF6E12001200A9
:100682000B6A0A6A096A00500402F4CF09F0F3CF38
:1006920008F001500502F4CF0BF0F3CF0AF000503E
:1006A2000502F3500926F4500A22E86A0B2201508F
:1006B2000402F3500926F4500A22E86A0B2208C009
:1006C20000F009C001F00AC002F00BC003F01200F2
:1006D2005C92380E016E000E026E00018A6B01C040
:1006E200E9FF02C0EAFFEECF00F000BC2AD0908DF5
:1006F2009087010E0124E16E000E0220E26E91C08D
:10070200E6FF92C0E6FF93C0E6FF94C0E6FF050E47
:100712000124E16E000E0220E26EE66AE66AE66AF3
:10072200E66A01C0E1FF02C0E2FF90C0E6FF0250AC
:100732005E1802E15D50011802E190C034F05C9253
:1007420009D0090E0126000E02228A2B040E8A5DB0
:06075200C6E35C82120008
:100758008C70E80E0001956F030E966F000E976F70
:0C076800986FBEDE29DE0000F3D71200FF
:100774000001626B000E636F000E646F020E956FD2
:1007840077DE00C095F001C096F0750E0001976FFA
:10079400000E986FCADD62A111D01ADE0000010EAE
:1007A4006215956F9553010ED8A4000E956F95515F
:1007B400000A000ED8A4010E956FA1DD010E626F30
:1007C400750E636F000E646F03DE0000010E621588
:1007D400956F9553010ED8A4000E956F9551000A9C
:1007E400000ED8A4010E956F8ADD320E956F000EAF
:1007F400966F976F986F76DEE1DD0000BFD7120029
:100804005F6A000E0001606F000E616F010E956F4C
:100814002FDE00C095F001C096F07F0E0001976FA7
:10082400000E986F82DD5FA011D0D2DD0000010EB2
:100834005F14956F9553010ED8A4000E956F9551D2
:10084400000A000ED8A4010E956F59DD010E5F6EEB
:100854007F0E606F000E616FBBDD0000010E5F1440
:10086400956F9553010ED8A4000E956F9551000A0B
:10087400000ED8A4010E956F42DD320E956F000E66
:10088400966F976F986F2EDE99DD0000BFD7120028
:100894000F01386B396B3A6B3B6B3C6B956A836A1F
:0A08A40096809682070E926E1200F5
:1008AE000001656B000E666F000E676F8CDD000039
:1008BE0084B002D0D88001D0D890000ED8B0010EEE
:1008CE00956F9551000A000ED8A4010E956F12DD9A
:1008DE00280E956F000E966F976F986FFEDD69DD8F
:1008EE00000084B0E3D78C7E8CAE41D068C0E9FFA7
:1008FE0069C0EAFFEECF00F000BE38D065A111D07E
:10090E0062DD0000010E6515956F9553010ED8A49A
:10091E00000E956F9551000A000ED8A4010E956F2A
:10092E00E9DC010E656F2B0E666F000E676F4BDDF7
:10093E000000010E6515956F9553010ED8A4000E9B
:10094E00956F9551000A000ED8A4010E956FD2DC5A
:10095E0068C0E1FF69C0E2FFE68E69515E1802E1F0
:10096E005D50681903E1348E24DD000037D068C075
:10097E00E9FF69C0EAFFEECF00F000AE2FD065A10F
:10098E0011D021DD0000010E6515956F9553010EF6
:10099E00D8A4000E956F9551000A000ED8A4010E32
:1009AE00956FA8DC010E656F250E666F000E676FE2
:1009BE000ADD0000010E6515956F9553010ED8A442
:1009CE00000E956F9551000A000ED8A4010E956F7A
:1009DE0091DC68C0E1FF69C0E2FFE69EF4DC000036
:1009EE00000E84B0010E956F9551000A000ED8A42A
:1009FE00010E956F7FDC280E956F000E966F976F28
:100A0E00986F6BDDD6DC000084A0E8D74FD71200BC
:100A1E0035A00FD036C090F037C091F0356A010E78
:100A2E000001956F010E966F90C097F091C098F0EF
:100A3E0022DC5FA00FD0000160C090F061C091F089
:100A4E005F6A010E956F0A0E966F90C097F091C077
:100A5E0098F011DC000162A10ED063C090F064C06A
:100A6E0091F0626B020E956F010E966F90C097F02B
:100A7E0091C098F000DC65A10FD066C090F067C001
:100A8E0091F0656B020E956F090E966F90C097F000
:100A9E0091C098F042EC01F0140E956F000E966F17
:0E0AAE00976F986F1ADD85DC0000B2D712003A
:100ABC0043EC06F0E9DEC8DDBFDDB2DD906B8E0ED7
:100ACC00916F050E926F000E936F000E946FFBDD0D
:100ADC005CB20FD0090E006E000E016E8AC004F0DD
:100AEC00000E056EC8DD380E0024686F000E012064
:100AFC00696F906B040E916F080E926F000E936FDE
:100B0C00000E946FE0DD906B740E916F070E926F78
:100B1C00000E936F000E946FD6DD906B580E916F94
:100B2C00070E926F000E936F000E946FCCDD906BDE
:100B3C001E0E916F0A0E926F000E936F000E946F43
:100B4C00C2DD906BAE0E916F080E926F000E936F1C
:100B5C00000E946FB8DDF28ED0BEF28C5C985C8681
:100B6C00080E896F8BC05DF08CC05EF0000E5E5C71
:100B7C0002E1530E5D5C05E3380E5D6E000E5E6E99
:100B8C000AD0090E5D24006E000E5E20016E00C0BE
:100B9C005DF001C05EF05DC0E9FF5EC0EAFF010ED2
:100BAC00006E340EE16E000EE26EEECFE6FF000634
:100BBC00FCE134AC03D034BE01D001D02FD034C012
:100BCC0000F0070E001600C08AF089518A5D01E31F
:100BDC0025D034B60DD043DDC5EC00F0D70EEF16A2
:100BEC00280E3414006E0050EF125CB601D03BD0CE
:100BFC0034A803D034BA01D011D034A60FD05C88FD
:100C0C005DC08EF05EC08FF034C000F0070E001691
:100C1C0000C089F08951000A01E107D05E508C199F
:100C2C0002E18B515D1801E0A1D75CA81CD05C9649
:100C3C008EC05DF08FC05EF05DC08BF05EC08CF03E
:100C4C005DC0E9FF5EC0EAFF010E006E340EE16E7E
:100C5C00000EE26EEECFE6FF0006FCE134AC03D0F2
:0A0C6C0034BE01D0B8D77AD7FFD705
:100C860010EE25F00F0E006E010E016E760EF66E5A
:0E0C96000C0EF76E000EF86E0EEC03F012005E
:060C7600436F6E742000C4
:060C7C0050617573650074
:020C8200000070
:010C84000F60
:020000040030CA
:0D000100231F3CFFBF81FF0FC00FE00F4029
:00000001FF
