:040000007CEF04F09D
:1000080000C01CF001C01BF002C01AF003C019F0B8
:1000180004C018F005C017F008C016F009C015F0A4
:10002800E1CF1FF0E2CF20F0E9CF1DF0EACF1EF0BC
:100038009EA26BD09E920001756B040E755D65E201
:10004800090E006E000E016E75C004F0000E056EFC
:10005800D8DA290E0024E96E000E0120EA6EEECFF0
:1000680000F000A850D0090E006E000E016E75C099
:1000780004F0000E056EC5DA290E0026000E0122D6
:10008800050E0024046E000E0120056E04C0E9FF71
:1000980005C0EAFF010EEE24006E000EEE20016E90
:1000A800000EEE20026E000EEE20036E04C0E1FF8B
:1000B80005C0E2FF00C0E6FF01C0E6FF02C0E6FFA0
:1000C80003C0E6FF04C0E9FF05C0EAFFEECF00F079
:1000D800EECF01F0EECF02F0EECF03F000500110AA
:1000E8000210031010E1090E006E000E016E75C0BB
:1000F80004F0000E056E85DA290E0024E16E000E6C
:100108000120E26EE698752B98D71CC000F01BC042
:1001180001F01AC002F019C003F018C004F017C0AB
:1001280005F016C008F015C009F01DC0E9FF1EC093
:0C013800EAFF1FC0E1FF20C0E2FF110041
:0A014400210E0D6E0D2EFED71200E5
:10014E000F0E0C6E470E0D6E0D2EFED70C2EFCD71D
:06015E0000000000120089
:0601640000000000120083
:10016A00000174BF02D0819601D0818674BD02D08D
:10017A00819401D0818474BB02D0819201D08182A2
:10018A0074B902D0819001D0818060B102D0818897
:10019A0001D08198818AE1DF819A74B702D0819671
:1001AA0001D0818674B502D0819401D0818474B360
:1001BA0002D0819201D0818274B102D0819001D0A3
:1001CA00818060B102D0818801D08198818AC5DF9F
:0E01DA00819A60A102D0B6DF01D0AFDF120023
:0A01E80026C0E9FF27C0EAFF12005D
:0E01F2000001609173C074F0B7DF60811200ED
:10020000086A096A100E0C6E01340836093604506B
:10021000085E0550D8A0053C095ED8B007D0045050
:1002200008260550D8B0053C0926D890003601367E
:060230000C2EEAD71200BB
:1002360006005090D6DFFDCFECFFFECFECFFFFCFE0
:0E024600ECFF289628A8289A52B0288A1200A9
:0C0254000E0E0D6E0D2EFED700001200E5
:1002600010D0800E00016C6F1AD0C00E6C6F17D0CA
:10027000940E6C6F14D0D40E6C6F11D0800E6C6F16
:100280000ED000016C51010AECE06C51020AEDE065
:100290006C51030AEDE06C51040AEDE0EFD76D05F7
:1002A000006E6C51002600C06CF000C074F05DDF81
:1002B0006091706B70516E25E96E000E6F21EA6ED1
:1002C000EE520BE070516E25E96E000E6F21EA6E62
:0E02D000EECF73F08EDF702BEDD76081120041
:1002DE000001706B050E705D0AE270516E25E16EC5
:1002EE00000E6F21E26E200EE66E702BF3D770516A
:1002FE006E25E16E000E6F21E26EE66A7007705198
:10030E006E25716F000E6F21726F0A0E046E000E55
:10031E00056E6CC000F06DC001F06BDF08C000F020
:10032E0009C001F0300E002671C0E1FF72C0E2FF7D
:10033E0000C0E6FF0A0E046E000E056E6CC000F0E3
:10034E006DC001F056DF00C06CF001C06DF0000E04
:10035E00011802E1000E001801E102D07007CFD79C
:02036E0012007B
:10037000939A93989390939293949396819A819859
:100380008196819481928190E2DEE1DEE0DE8182DD
:100390008180818AE7DE819ADADE818AE3DE819AD2
:1003A000D6DE818ADFDE819AD2DE8190818ADADE32
:1003B000819ACDDE818AD6DE819A81928186818A78
:1003C000D1DE819AC4DE81968180818ACBDE819ADA
:1003D0008190818AC7DE819ABADE818AC3DE819AE2
:1003E0008180818ABFDE819AB2DE8190818ABADE05
:1003F000819A8186818481828180818AB3DE819A1B
:08040000A6DE0001608112007C
:06040800526A15DF12002C
:10040E00289A26C0E1FF27C0E2FFE69800016C5152
:10041E006D116E116F1146E0FF0E6C19006EFF0E1E
:10042E006D19016EFF0E6E19026EFF0E6F19036EBF
:10043E0000C06CF001C06DF002C06EF003C06FF032
:10044E00010E0024046E000E0120056E000E022027
:10045E00066E000E0320076E04C06CF005C06DF032
:10046E0006C06EF007C06FF026C000F027C001F086
:10047E00050E0024E16E000E0120E26E04C0E6FFC0
:10048E0005C0E6FF06C0E6FF07C0E6FF26C0E1FF97
:10049E0027C0E2FFE68626C0E1FF27C0E2FFE6881E
:0604AE00288828861200D8
:1004B400C26A231C006E0050C1160F0EC012C08EFB
:1004C4006CC000F000360090003600900050C2125C
:1004D400C280BEDEC282C2A201D0FDD7C4CF01F069
:1004E400006A00C06DF001C06EF0C3500012000E2F
:1004F400011200C06DF001C06EF0C290000E001435
:10050400026E0150800B036E000E031802E1000E10
:10051400021803E000016D6B6E6B6DC000F06EC0DD
:0405240001F01200D0
:10052800509A5EDE00016C5307E028A603D0289895
:10053800EF980BD0288601D0289628B805D028AA8D
:0C05480003D02886508A01D00600120063
:1005540049DEFDCFECFFFECFECFFFFCFECFF28869A
:04056400060012007B
:100568003FDEEECF28F00500EE50FD6EEE50FE6E39
:08057800EE50FF6E12001200AC
:100580000900F5CFE6FF0006FBE10106F9E11200E4
:10059000516A00016C6B8EDF00C063F001C064F033
:1005A0005150000A10E030DF00005150000A010EE7
:1005B000D8A4000E00016C6F6C51000A000ED8A484
:1005C000010E6C6FB1DF63C051F01EDF00005150AF
:1005D000000A000ED8A4010E00016C6F6C53010ECE
:1005E000D8A4000E6C6F6C51000A000ED8A4010E46
:1005F0006C6F9ADF320E6C6F000E6D6F6E6F6F6FE7
:0A06000006DFA8DF0000C5D71200D6
:10060A000B6A0A6A096A00500402F4CF09F0F3CFB0
:10061A0008F001500502F4CF0BF0F3CF0AF00050B6
:10062A000502F3500926F4500A22E86A0B22015007
:10063A000402F3500926F4500A22E86A0B2208C081
:10064A0000F009C001F00AC002F00BC003F012006A
:10065A004D0EBA6E310EBB6EF28EF28CD08E9D822A
:06066A009F82BA84120019
:10067000506A440E246E000E256E5F6A299C329CDF
:060680003B9C449C1200AB
:1006860074DE010E746F6EDD0C0E746F6BDD12007E
:100696005092290E016E000E026E526A01C0E9FFE9
:1006A60002C0EAFFEECF00F000BC2BD00001678D40
:1006B6006787010E0124E16E000E0220E26E68C01B
:1006C600E6FF69C0E6FF6AC0E6FF6BC0E6FF050EFF
:1006D6000124E16E000E0220E26EE66AE66AE66A30
:1006E600E66A01C0E1FF02C0E2FF67C0E6FF025012
:1006F600271802E12650011802E167C028F050923F
:1007060009D0090E0126000E0222522A040E525C5E
:06071600C5E35082120051
:10071C004F6A020E00016C6FC7DE00C061F001C0B1
:10072C0062F04F50000A10E069DE00004F50000AE2
:10073C00010ED8A4000E00016C6F6C51000A000E63
:10074C00D8A4010E6C6FEADE61C04FF057DE0000DA
:10075C004F50000A000ED8A4010E00016C6F6C53B0
:10076C00010ED8A4000E6C6F6C51000A000ED8A4B8
:10077C00010E6C6FD3DE320E6C6F000E6D6F6E6FF0
:0C078C006F6F3FDEE1DE0000C4D71200FA
:100798004E6A010E00016C6F89DE00C05DF001C079
:1007A8005EF04E50000A10E02BDE00004E50000AAA
:1007B800010ED8A4000E00016C6F6C51000A000EE7
:1007C800D8A4010E6C6FACDE5DC04EF019DE0000DF
:1007D8004E50000A000ED8A4010E00016C6F6C5335
:1007E800010ED8A4000E6C6F6C51000A000ED8A43C
:1007F800010E6C6F95DE320E6C6F000E6D6F6E6FB2
:0C0808006F6F01DEA3DE0000C4D71200F9
:100814008C70E80E00016C6F030E6D6F000E6E6F2E
:0C0824006F6FF3DD95DE0000F3D71200CB
:100830000F01386B396B3A6B3B6B3C6B956A836A83
:0A08400096809682070E926E120059
:10084A005150000A16E051C067F0516A67C06CF057
:10085A00000E00016D6F530E6E6F000E6F6F3ADD62
:10086A00010E6C6F010E6D6F530E6E6F000E6F6F7F
:10087A00F2DC4E50000A16E000014EC067F04E6AE4
:10088A0067C06CF0000E6D6F530E6E6F000E6F6FC7
:10089A0021DD010E6C6F0A0E6D6F530E6E6F000E26
:1008AA006F6FD9DC4F50000A16E000014FC067F0A5
:1008BA004F6A67C06CF0000E6D6F530E6E6F000EBC
:1008CA006F6F08DD020E6C6F010E6D6F530E6E6F47
:1008DA00000E6F6FC0DC0001140E6C6F000E6D6F9E
:0E08EA006E6F6F6F8FDD31DE0000AAD7120037
:1008F8004DEC05F099DFADDEC2DEB6DE676B900E1B
:10090800686F050E696F000E6A6F000E6B6FBFDEB1
:10091800010E0001676F980E686F070E696F000E71
:100928006A6F000E6B6FB3DE020E0001676F1C0E5C
:10093800686F070E696F000E6A6F000E6B6FA7DE97
:10094800030E0001676F140E686F080E696F000EC2
:100958006A6F000E6B6F9BDE040E0001676F4A0E14
:10096800686F080E696F000E6A6F000E6B6F8FDE7E
:10097800F28ED0BEF28C50985086080E4D6E50A460
:1009880001D019D024C026F025C027F0000E275C1E
:1009980002E1440E265C05E3290E266E000E276E42
:1009A8000AD0090E2624006E000E2720016E00C012
:1009B80026F001C027F026C0E9FF27C0EAFF010E94
:1009C800006E280EE16E000EE26EEECFE6FF000626
:1009D800FCE128AC03D028BE01D001D02FD028C01C
:1009E80000F0070E001600C052F04D50525C01E3B3
:1009F80025D028B60DD0B4DDF4EC00F0D70EEF16F4
:100A0800280E2814006E0050EF1250B601D03DD0C9
:100A180028A803D028BA01D011D028A60FD0508812
:100A280026C065F027C066F028C000F0070E001643
:100A380000C04DF04D50000A01E109D050B407D074
:100A48002750251802E12450261801E09FD750A806
:100A58001CD0509665C026F066C027F026C024F04A
:100A680027C025F026C0E9FF27C0EAFF010E006E67
:100A7800280EE16E000EE26EEECFE6FF0006FCE106
:0E0A880028AC03D028BE01D0B6D775D7FFD753
:100A9A0010EE21F0030E006E010E016E960EF66E38
:0E0AAA000A0EF76E000EF86EC0EC02F012009D
:020A960000005E
:010A98000F4E
:020000040030CA
:0D000100231F3CFFBF81FF0FC00FE00F4029
:00000001FF
