:040000009BEF05F07D
:1000080000C01EF001C01DF002C01CF003C01BF0B0
:1000180004C01AF005C019F006C018F007C017F0A0
:1000280008C016F009C015F0E1CF21F0E2CF22F0A8
:10003800E9CF1FF0EACF20F09EA2BCD09E9200012B
:10004800946B040E945D68E2090E006E000E016E5A
:1000580094C004F0000E056E99EC04F02E0E0024F6
:10006800E96E000E0120EA6EEECF00F000A852D033
:10007800090E006E000E016E94C004F0000E056EAD
:1000880099EC04F02E0E0026000E0122050E002425
:10009800046E000E0120056E04C0E9FF05C0EAFFEA
:1000A800010EEE24006E000EEE20016E000EEE2012
:1000B800026E000EEE20036E04C0E1FF05C0E2FFF1
:1000C80000C0E6FF01C0E6FF02C0E6FF03C0E6FF8E
:1000D80004C0E9FF05C0EAFFEECF00F0EECF01F063
:1000E800EECF02F0EECF03F0005001100210031023
:1000F80011E1090E006E000E016E94C004F0000EAE
:10010800056E99EC04F02E0E0024E16E000E01201D
:10011800E26EE698942B95D7956B020E955D4AE2B0
:1001280095C000F0000E016E0036009001360036D2
:1001380000900136790E0024E96E000E0120EA6E67
:10014800EECF04F0EECF05F0EECF06F0EECF07F0DD
:1001580007AE2ED095C000F0000E016E003600905C
:100168000136003600900136790E0024046E000E28
:100178000120056E04C0E9FF05C0EAFFEECF00F0DC
:10018800EECF01F0EECF02F0EECF03F0010E002625
:10019800000E01220222032204C0E1FF05C0E2FF93
:1001A80000C0E6FF01C0E6FF02C0E6FF03C0E6FFAD
:1001B800952BB3D71EC000F01DC001F01CC002F083
:1001C8001BC003F01AC004F019C005F018C006F0EF
:1001D80017C007F016C008F015C009F01FC0E9FFE6
:0E01E80020C0EAFF21C0E1FF22C0E2FF1100AB
:0A01F60028C0E9FF29C0EAFF12004B
:10020000000192AF01D0F28ED0AE03D092AD01D0FA
:04021000F28C12005A
:1002140006005890EEDFFDCFECFFFECFECFFFFCFE2
:0E022400ECFF2D962DA82D9A52B02D8A1200B7
:10023200A6A202D00000FCD7A69C92C0A9FF93C040
:10024200A8FFA69EA684F2CF00F0F29E550EA76EDE
:10025200AA0EA76EA68200BE02D0F29E01D0F28E36
:0E026200A694A1B802D00000FCD7A19812000B
:10027000C00EF214016EF29ED0BEF29C01C000F0DE
:0202800012006A
:06028200526AC7DF120002
:10028800589AB5DF00018E5307E02DA603D02D98AC
:10029800EF980BD02D8601D02D962DB805D02DAA1C
:0C02A80003D02D86588A01D006001200F9
:1002B400DDDF00C08EF05884589C00BE588C589ED8
:0A02C40000018EAD01D0588E12002B
:1002CE00000178AF01D0F28ED0AE03D078AD01D060
:0402DE00F28C12008C
:1002E200589400018E6B58BC8E8F58BE8E8D8EC076
:0602F20092F085DF12000E
:1002F800086A096A100E0C6E013408360936045073
:10030800085E0550D8A0053C095ED8B007D0045057
:1003180008260550D8B0053C0926D8900036013685
:060328000C2EEAD71200C2
:10032E00C00EF2140001786FF29ED0BEF29C120045
:10033E008EC090F08FC091F00001926B90C093F040
:10034E0071DF010E0001926F91C093F06BDF12000E
:10035E00030E006E040EE16E000EE26E8EC0E9FF1B
:10036E008FC0EAFFEECFE6FF0006FCE15890045086
:10037E00051823E1030E00018E25E96E000E8F2174
:10038E00EA6E06C000F0000E016E003600900136D7
:10039E000050EE24E16E0150EE20E26E90C0E6FFBA
:1003AE0091C0E6FF0650010F006E00C006F0065029
:1003BE000418D8B4066A588035D006C000F0000E76
:1003CE00016E05500024026E000E0120036E02C065
:1003DE0007F003C008F0000E035C02E10450025C5B
:1003EE0004E30450075E000E085A0001030E8E252A
:1003FE00E96E000E8F21EA6E07C000F008C001F012
:10040E000036009001360050EE24E16E0150EE20D1
:10041E00E26E90C0E6FF91C0E6FF0550010F006E40
:10042E0000C005F0030E006E8EC0E1FF8FC0E2FF2C
:10043E00040EE96E000EEA6EEECFE6FF0006FCE15A
:02044E0012009A
:100450000F0E0C6E470E0D6E0D2EFED70C2EFCD718
:0604600000000000120084
:060466000000000012007E
:0A046C00210E0D6E0D2EFED71200BA
:10047600939A93989390939293949396819A819852
:100486008196819481928190E0DFDFDFDEDF8182D9
:100496008180818AE5DF819AD8DF818AE1DF819ACE
:1004A600D4DF818ADDDF819AD0DF8190818AD8DF2F
:1004B600819ACBDF818AD4DF819A81928186818A73
:1004C600CFDF819AC2DF81968180818AC9DF819AD6
:1004D6008190818AC5DF819AB8DF818AC1DF819ADE
:1004E6008180818ABDDF819AB0DF8190818AB8DF01
:1004F600819A8186818481828180818AB1DF819A15
:08050600A4DF00018181120055
:10050E0073DEFDCFECFFFECFECFFFFCFECFF2D86B1
:04051E0006001200C1
:10052200C8DE8B5305E089C08EF08AC08FF006DFEB
:1005320089C026F08AC027F00001716B040E715D3C
:1005420037E2720E8C6F000E8D6F71518C27D8B00E
:100552008D2B0A0E046E000E056E26C000F027C019
:1005620001F0C9DE08C000F009C001F0FA0E002453
:10057200F66E0C0E0120F76E000EF86E000EF822D9
:100582000900F5CF00F08CC0E1FF8DC0E2FF00C092
:10059200E6FF0A0E046E000E056E26C000F027C0AC
:1005A20001F0A9DE00C026F001C027F0712BC6D7EA
:1005B20097DEBCDE54505318010ED8A4000E526EC2
:1005C20085DE525226E1B2DE5450531818E17EDE27
:1005D20057DE000054505318010ED8A4000E00013B
:1005E2008E6F8E53010ED8A4000E8E6F8E51000AAC
:1005F200000ED8A4010E8E6F46DE98DEE5D7530EAC
:100602008E6F000E8F6F720E906F000E916FA6DECE
:040612005DDE120097
:10061600000189BF02D0819601D0818689BD02D0B2
:10062600819401D0818489BB02D0819201D08182DC
:1006360089B902D0819001D0818081B102D08188B0
:1006460001D08198818A0CDF819A89B702D0819680
:1006560001D0818689B502D0819401D0818489B385
:1006660002D0819201D0818289B102D0819001D0DD
:10067600818081B102D0818801D08198818AF0DEA3
:0E068600819A81A102D0E1DE01D0EDDE1200EA
:100694002D9A28C0E1FF29C0E2FFE69800018951A4
:1006A4008A118B118C1146E0FF0E8919006EFF0E22
:1006B4008A19016EFF0E8B19026EFF0E8C19036EE0
:1006C40000C089F001C08AF002C08BF003C08CF036
:1006D400010E0024046E000E0120056E000E02209F
:1006E400066E000E0320076E04C089F005C08AF070
:1006F40006C08BF007C08CF028C000F029C001F0C0
:10070400050E0024E16E000E0120E26E04C0E6FF37
:1007140005C0E6FF06C0E6FF07C0E6FF28C0E1FF0C
:1007240029C0E2FFE68628C0E1FF29C0E2FFE6888F
:060734002D882D86120045
:10073A00030E006E050EE16E000EE26E89C0E9FF3F
:10074A008AC0EAFFEECFE6FF0006FCE107C008F028
:10075A000750010F006E00C007F00550075CD8B0C3
:10076A00076A0604006E00C006F0030E006E89C018
:10077A00E1FF8AC0E2FF050EE96E000EEA6EEECFD7
:10078A00E6FF0006FCE1030E00018925E96E000E72
:10079A008A21EA6EEECF03F0EECF04F008C000F033
:1007AA00000E016E00360090013600500324E96EF7
:1007BA0001500420EA6EEECF00F0EECF01F01200F5
:1007CA000900F5CFE6FF0006FBE10106F9E1120098
:1007DA00F00E801654520BE0A5DD530E896F000E01
:1007EA008A6FA6DF00C06FF001C070F06BDD32D0F7
:1007FA006FC0E9FF70C0EAFFEECF83FF8080020E70
:10080A00256E35D00001010E6F25E96E000E7021AC
:10081A00EA6EEECF83FF8082030E256E28D0000198
:10082A00020E6F25E96E000E7021EA6EEECF83FF8D
:10083A008084040E256E1BD00001030E6F25E96E1D
:10084A00000E7021EA6EEECF83FF8086010E256EC0
:10085A000ED00DD02550010ACBE02550020AD2E075
:10086A002550030ADCE02550040AE6E0F2D700012D
:10087A00020E896F000E8A6F8B6F8C6F06DF42DE65
:06088A000000A6D71200D9
:10089000F8DC000084B002D0D88001D0D890000EDF
:1008A000D8B0010E00018E6F8E51000A000ED8A440
:1008B000010E8E6FE9DC280E896F000E8A6F8B6F38
:1008C0008C6FE8DE24DE000084B0E2D7270E245CC3
:1008D00002E10F0E235C12E20001010E2324006EE0
:1008E000000E2420016E00C023F001C024F023C0BC
:1008F00089F024C08AF0010E8B6F13DEC2DC000089
:10090000000E84B0010E00018E6F8E51000A000EA1
:10091000D8A4010E8E6FB8DC280E896F000E8A6F86
:100920008B6F8C6FB7DEF3DD000084A0E7D7B0D704
:020930001200B3
:100932000B6A0A6A096A00500402F4CF09F0F3CF85
:1009420008F001500502F4CF0BF0F3CF0AF000508B
:100952000502F3500926F4500A22E86A0B220150DC
:100962000402F3500926F4500A22E86A0B2208C056
:1009720000F009C001F00AC002F00BC003F012003F
:1009820039DCEECF2DF00500EE50FD6EEE50FE6E1E
:08099200EE50FF6E120012008E
:10099A004D0EBA6E310EBB6EF28EF28CD08E9D82E7
:0609AA009F82BA841200D6
:1009B000A69C84C0A9FFA69EA680A8CF00F0120026
:1009C00060DC000084B202D0D88001D0D890000E44
:1009D000D8B0010E00018E6F8E51000A000ED8A40F
:1009E000010E8E6F51DC280E896F000E8A6F8B6F9F
:1009F0008C6F50DE8CDD000084B2E2D7000E006EFA
:100A00002450005C02E12350000812E20001010EB4
:100A1000235C006E000E2458016E00C023F001C05C
:100A200024F023C089F024C08AF0010E8B6F79DD99
:100A300028DC0000000E84B2010E00018E6F8E5182
:100A4000000A000ED8A4010E8E6F1EDC280E896FDE
:100A5000000E8A6F8B6F8C6F1DDE59DD000084A243
:060A6000E7D7AED712003B
:100A660007DD010E896FD4DD0C0E896FD1DD120012
:100A76000F01386B396B3A6B3B6B3C6B956A836A3B
:0E0A8600926A806A9680848096828482120032
:100A940058922E0E016E000E026E526A01C0E9FFDA
:100AA40002C0EAFFEECF00F000BC2BD00001848D21
:100AB4008487010E0124E16E000E0220E26E85C0DF
:100AC400E6FF86C0E6FF87C0E6FF88C0E6FF050EA6
:100AD4000124E16E000E0220E26EE66AE66AE66A2E
:100AE400E66A01C0E1FF02C0E2FF84C0E6FF0250F3
:100AF400291802E12850011802E184C02DF058920F
:100B040009D0090E0126000E0222522A040E525C5C
:060B1400C5E35882120047
:100B1A00586A490E2B6E000E2C6E030E0001776F79
:0C0B2A00766B2E9C379C409C499C12006E
:100B3600236A246A010E256E266A276A99DF2ADF50
:100B46008FDFE8DF846BDA0E856F070E866F000E87
:100B5600876F000E886F9BDF0001846B900E856F98
:100B6600080E866F000E876F000E886F90DF0001FB
:100B7600846BC00E856F090E866F000E876F000EA0
:100B8600886F85DF97EC01F00A0E536E556A546A3A
:100B9600590E566E000E576E67EC01F0010E846F0B
:100BA60004DF00C083F0826B846BFFDE005082118D
:100BB600236E83C024F0000E24122450270802E17D
:100BC60023500F0802E2236A246A23C089F024C056
:100BD6008AF08B6BA3DCF28ED0BEF28C58985886C6
:100BE600080E2A6E58A401D019D02BC028F02CC0AC
:100BF60029F0000E295C02E1490E285C05E32E0E61
:100C0600286E000E296E0AD0090E2824006E000EEA
:100C16002920016E00C028F001C029F028C0E9FF94
:100C260029C0EAFF010E006E2D0EE16E000EE26E87
:100C3600EECFE6FF0006FCE12DAC03D02DBE01D0C1
:100C460001D02FD02DC000F0070E001600C052F0C4
:100C56002A50525C01E325D02DB60DD08FDEFBEC79
:100C660000F0D70EEF16280E2D14006E0050EF126E
:100C760058B601D03DD02DA803D02DBA01D011D041
:100C86002DA60FD0588828C06DF029C06EF02DC053
:100C960000F0070E001600C02AF02A50000A01E1F3
:100CA60009D058B407D029502C1802E12B50281827
:100CB60001E09FD758A81CD058966DC028F06EC08A
:100CC60029F028C02BF029C02CF028C0E9FF29C044
:100CD600EAFF010E006E2D0EE16E000EE26EEECF03
:100CE600E6FF0006FCE12DAC03D02DBE01D0B6D741
:040CF60075D7FFD7D8
:0A0CFA003F065B4F666D7D077F6FBC
:020000040030CA
:0D000100231F3CFFBF81FF0FC00FE00F4029
:00000001FF
