:04000000BDEF01F05F
:1000080000C01AF001C019F002C018F003C017F0C0
:1000180004C016F005C015F0E1CF1DF0E2CF1EF0C8
:10002800E9CF1BF0EACF1CF09EA26AD09E92566AD6
:10003800040E565C65E2090E006E000E016E56C095
:1000480004F0000E056EE4D81F0E0024E96E000EC1
:100058000120EA6EEECF00F000A850D0090E006E25
:10006800000E016E56C004F0000E056ED1D81F0EAA
:100078000026000E0122050E0024046E000E012049
:10008800056E04C0E9FF05C0EAFF010EEE24006E0C
:10009800000EEE20016E000EEE20026E000EEE2025
:1000A800036E04C0E1FF05C0E2FF00C0E6FF01C027
:1000B800E6FF02C0E6FF03C0E6FF04C0E9FF05C093
:1000C800EAFFEECF00F0EECF01F0EECF02F0EECF78
:1000D80003F0005001100210031010E1090E006E29
:1000E800000E016E56C004F0000E056E91D81F0E6A
:1000F8000024E16E000E0120E26EE698562A98D799
:100108001AC000F019C001F018C002F017C003F0BF
:1001180016C004F015C005F01BC0E9FF1CC0EAFFBB
:0A0128001DC0E1FF1EC0E2FF110040
:0A01320049C0E9FF4AC0EAFF1200CD
:10013C00FADFFDCFECFFFECFECFFFFCFECFF4386E9
:04014C000600120097
:10015000439A49C0E1FF4AC0E2FFE698525053106B
:100160005410551046E0FF0E5218006EFF0E531843
:10017000016EFF0E5418026EFF0E5518036E00C07C
:1001800052F001C053F002C054F003C055F0010E0C
:100190000024046E000E0120056E000E0220066E83
:1001A000000E0320076E04C052F005C053F006C0D5
:1001B00054F007C055F049C000F04AC001F0050EE8
:1001C0000024E16E000E0120E26E04C0E6FF05C0CF
:1001D000E6FF06C0E6FF07C0E6FF49C0E1FF4AC0F0
:1001E000E2FFE68649C0E1FF4AC0E2FFE6884388B5
:0401F0004386120030
:1001F4000900F5CFE6FF0006FBE10106F9E1120074
:10020400476A3A0E456E000E466E1F9C289C319C30
:040214003A9C1200FE
:100218000B6A0A6A096A00500402F4CF09F0F3CFA6
:1002280008F001500502F4CF0BF0F3CF0AF00050AC
:100238000502F3500926F4500A22E86A0B220150FD
:100248000402F3500926F4500A22E86A0B2208C077
:1002580000F009C001F00AC002F00BC003F0120060
:100268000F01386B396B3A6B3B6B3C6B956A836A51
:02027800120072
:10027A008C742C0E526E010E536E000E546E556E17
:0A028A0062DF57DF0000F4D7120016
:1002940047921F0E016E000E026E446A01C0E9FF10
:1002A40002C0EAFFEECF00F000BC2AD04D8C4D8690
:1002B400010E0124E16E000E0220E26E4EC0E6FF44
:1002C4004FC0E6FF50C0E6FF51C0E6FF050E012413
:1002D400E16E000E0220E26EE66AE66AE66AE66A0B
:1002E40001C0E1FF02C0E2FF4DC0E6FF02504A1820
:1002F40002E14950011802E14DC043F0479209D090
:10030400090E0126000E0222442A040E445CC6E3B0
:04031400478212000A
:100318008C702C0E526E010E536E000E546E556E7C
:0A03280013DF08DF0000F4D7120015
:100332004D0EBA6E310EBB6EF28EF28CD08E9D8255
:060342009F82BA84120044
:10034800F4DEEECF43F00500EE50FD6EEE50FE6E8B
:08035800EE50FF6E12001200CE
:100360008C722C0E526E010E536E000E546E556E32
:0A037000EFDEE4DE0000F4D7120017
:10037A0076DFDADF42DF4D6A180E4E6E030E4F6EDD
:10038A00000E506E000E516E80DF4D6A600E4E6E8A
:10039A00030E4F6E000E506E000E516E76DF4D6AE0
:1003AA007A0E4E6E020E4F6E000E506E000E516E99
:1003BA006CDFF28ED0BEF28C47984786080E486EE4
:1003CA0045C049F046C04AF0000E4A5C02E13A0EC6
:1003DA00495C05E31F0E496E000E4A6E0AD0090EEB
:1003EA004924006E000E4A20016E00C049F001C087
:1003FA004AF049C0E9FF4AC0EAFF010E006E430E07
:10040A00E16E000EE26EEECFE6FF0006FCE143ACC1
:10041A0003D043BE01D001D02ED043C000F0070E56
:10042A00001600C044F04850445C01E324D043B6AF
:10043A000CD085DF79DED70EEF16280E4314006E36
:10044A000050EF1247B601D03BD043A803D043BABD
:10045A0001D011D043A60FD0478849C04BF04AC0FB
:10046A004CF043C000F0070E001600C048F0485098
:10047A00000A01E107D04A50461802E145504918DE
:10048A0001E0A2D747A81CD047964BC049F04CC000
:10049A004AF049C045F04AC046F049C0E9FF4AC09F
:1004AA00EAFF010E006E430EE16E000EE26EEECF21
:1004BA00E6FF0006FCE143AC03D043BE01D0B9D746
:0404CA007BD7FFD706
:020000040030CA
:0D000100231F3CFFBF81FF0FC00FE00F4029
:00000001FF
