:0400000075EF03F0A5
:1000080000C020F001C01FF002C01EF003C01DF0A8
:1000180004C01CF005C01BF006C01AF007C019F098
:1000280008C018F009C017F00AC016F00BC015F088
:10003800E1CF23F0E2CF24F0E9CF21F0EACF22F09C
:100048009EA2B9D09E9200017F6B040E7F5D65E28F
:10005800090E006E000E016E7FC004F0000E056EE2
:1000680025DA450E0024E96E000E0120EA6EEECF77
:1000780000F000A850D0090E006E000E016E7FC07F
:1000880004F0000E056E12DA450E0026000E01225D
:10009800050E0024046E000E0120056E04C0E9FF61
:1000A80005C0EAFF010EEE24006E000EEE20016E80
:1000B800000EEE20026E000EEE20036E04C0E1FF7B
:1000C80005C0E2FF00C0E6FF01C0E6FF02C0E6FF90
:1000D80003C0E6FF04C0E9FF05C0EAFFEECF00F069
:1000E800EECF01F0EECF02F0EECF03F0005001109A
:1000F8000210031010E1090E006E000E016E7FC0A1
:1001080004F0000E056ED2D9450E0024E16E000EF3
:100118000120E26EE6987F2B98D7806B020E805DF7
:100128004AE280C000F0000E016E003600900136F1
:100138000036009001363B0E0024E96E000E0120C7
:10014800EA6EEECF04F0EECF05F0EECF06F0EECF7C
:1001580007F007AE2ED080C000F0000E016E00360A
:10016800009001360036009001363B0E0024046EE4
:10017800000E0120056E04C0E9FF05C0EAFFEECFBE
:1001880000F0EECF01F0EECF02F0EECF03F0010E5B
:100198000026000E01220222032204C0E1FF05C04E
:1001A800E2FF00C0E6FF01C0E6FF02C0E6FF03C0B1
:1001B800E6FF802BB3D720C000F01FC001F01EC09F
:1001C80002F01DC003F01CC004F01BC005F01AC0EB
:1001D80006F019C007F018C008F017C009F016C0DB
:1001E8000AF015C00BF021C0E9FF22C0EAFF23C0C6
:0801F800E1FF24C0E2FF110049
:0A020000210E0D6E0D2EFED7120028
:10020A000F0E0C6E470E0D6E0D2EFED70C2EFCD760
:06021A00000000001200CC
:06022000000000001200C6
:1002260000017EBF02D0819601D081867EBD02D0BC
:10023600819401D081847EBB02D0819201D08182DB
:100246007EB902D0819001D081803AB002D08188F7
:1002560001D08198818AE1DF819A7EB702D08196AA
:1002660001D081867EB502D0819401D081847EB38F
:1002760002D0819201D081827EB102D0819001D0DC
:1002860081803AB002D0818801D08198818AC5DF09
:0E029600819A3AA002D0B6DF01D0AFDF12008D
:0A02A40070C0E9FF71C0EAFF12000C
:0C02AE003A907DC07EF0B8DF3A8012006C
:1002BA00449A70C0E1FF71C0E2FFE69800017851EC
:1002CA0079117A117B1146E0FF0E7819006EFF0E44
:1002DA007919016EFF0E7A19026EFF0E7B19036EF1
:1002EA0000C078F001C079F002C07AF003C07BF058
:1002FA00010E0024046E000E0120056E000E02207D
:10030A00066E000E0320076E04C078F005C079F06F
:10031A0006C07AF007C07BF070C000F071C001F02F
:10032A00050E0024E16E000E0120E26E04C0E6FF15
:10033A0005C0E6FF06C0E6FF07C0E6FF70C0E1FFA2
:10034A0071C0E2FFE68670C0E1FF71C0E2FFE68895
:06035A00448844861200F5
:10036000A1DFFDCFECFFFECFECFFFFCFECFF44861B
:040370000600120071
:10037400939A93989390939293949396819A819855
:1003840081968194819281903EDF3DDF3CDF8182C2
:100394008180818A43DF819A36DF818A3FDF819AB7
:1003A40032DF818A3BDF819A2EDF8190818A36DFBA
:1003B400819A29DF818A32DF819A81928186818ABA
:1003C4002DDF819A20DF81968180818A27DF819ABF
:1003D4008190818A23DF819A16DF818A1FDF819AC7
:1003E4008180818A1BDF819A0EDF8190818A16DFEA
:1003F400819A8186818481828180818A0FDF819ABA
:0604040002DF3A80120045
:10040A0010D0800E0001786F1AD0C00E786F17D006
:10041A00940E786F14D0D40E786F11D0800E786F46
:10042A000ED000017851010AECE07851020AEDE0A1
:10043A007851030AEDE07851040AEDE0EFD7790527
:10044A00006E7851002600C078F000C07EF0E6DE2B
:10045A003A907C6B7C517A25E96E000E7B21EA6E1C
:10046A00EE520BE07C517A25E96E000E7B21EA6E92
:0E047A00EECF7DF017DF7C2BEDD73A8012001D
:10048800010E0001786F080E796F2A0E7A6F000E40
:100498007B6FB7DFD00E786F070E796F000E7A6F1B
:0C04A8007B6F07DF59DF0000EBD712006C
:1004B4000B6A0A6A096A00500402F4CF09F0F3CF08
:1004C40008F001500502F4CF0BF0F3CF0AF000500E
:1004D4000502F3500926F4500A22E86A0B2201505F
:1004E4000402F3500926F4500A22E86A0B2208C0D9
:1004F40000F009C001F00AC002F00BC003F01200C2
:10050400CFDEEECF44F00500EE50FD6EEE50FE6EF1
:08051400EE50FF6E1200120010
:10051C0000016D93450E016E000E026E6B6B01C0F7
:10052C00E9FF02C0EAFFEECF00F000BC2AD0738DC9
:10053C007387010E0124E16E000E0220E26E74C07E
:10054C00E6FF75C0E6FF76C0E6FF77C0E6FF050E56
:10055C000124E16E000E0220E26EE66AE66AE66AAB
:10056C00E66A01C0E1FF02C0E2FF73C0E6FF025081
:10057C00711902E17051011802E173C044F06D93DE
:10058C0009D0090E0126000E02226B2B040E6B5DA6
:06059C00C6E36D831200AE
:1005A2004D0EBA6E310EBB6EF28EF28CD08E9D82E3
:0605B2009F82BA841200D2
:1005B8000900F5CFE6FF0006FBE10106F9E11200AC
:1005C800010E0001786F010E796F340E7A6F000EFC
:1005D8007B6F17DFD00E786F070E796F000E7A6F7A
:0C05E8007B6F67DEB9DE0000EBD712006D
:1005F400220E0C6E086A096A0A6A0B6A0C06D8B4E1
:100604001FD0D8900B320A32093208320332023238
:1006140001320032D8A0F2D70C06D8B409D0045065
:1006240008260550092206500A2207500B22EAD751
:10063400045008260550092206500A2207500B22AE
:020644001200A2
:10064600020E0001786F010E796F250E7A6F000E8B
:100656007B6FD8DED00E786F070E796F000E7A6F3B
:0C0666007B6F28DE7ADE0000EBD712006C
:1006720080DE010E00017E6FD5DD0C0E7E6FD2DDB5
:02068200120064
:10068400020E0001786F080E796F2F0E7A6F000E3C
:100694007B6FB9DED00E786F070E796F000E7A6F1C
:0C06A4007B6F09DE5BDE0000EBD712006C
:1006B00000016D6B600E6E6F000E6F6F030E396E72
:0C06C000436A459C4E9C579C609D1200B4
:1006CC000F01386B396B3A6B3B6B3C6B956A836AE9
:0E06DC00926A806A96808480968284821200E0
:1006EA004AEC04F0EEDF58DFBFDFDDDF726B040E89
:1006FA00725D2CE2736B060E006E000E016E026EC6
:10070A00036E72C004F0000E056E066E076E6DDF92
:10071A00680E0026080E0122000E0222020E002494
:10072A00F66E000E0120F76E000E0220F86E090028
:10073A00F5CF74F00900F5CF75F00900F5CF76F022
:10074A000900F5CF77F0E5DE722BD1D7F28ED0BE55
:10075A00F28C6D996D87080E6C6F6EC070F06FC069
:10076A0071F0000E715D02E1600E705D05E3450EE9
:10077A00706F000E716F0AD0090E7025006E000EA0
:10078A007121016E00C070F001C071F070C0E9FF04
:10079A0071C0EAFF010E006E440EE16E000EE26EB9
:1007AA00EECFE6FF0006FCE144AC03D044BE01D024
:1007BA0001D02ED044C000F0070E001600C06BF026
:1007CA006C516B5D01E324D044B60CD096DE65DD36
:1007DA00D70EEF16280E4414006E0050EF126DB7B4
:1007EA0001D03BD044A803D044BA01D011D044A6CA
:1007FA000FD06D8970C069F071C06AF044C000F012
:10080A00070E001600C06CF06C51000A01E107D017
:10081A0071516F1902E16E51701901E0A2D76DA9E9
:10082A001CD06D9769C070F06AC071F070C06EF02C
:10083A0071C06FF070C0E9FF71C0EAFF010E006E6F
:10084A00440EE16E000EE26EEECFE6FF0006FCE11A
:0E085A0044AC03D044BE01D0B9D77BD7FFD742
:1008940010EE25F0140E006E010E016E800EF66E41
:0E08A400080EF76E000EF86EDCEC02F012008B
:100868003400C80500002A00880400002500460658
:0808780000002F0084060000BF
:050880005669657700D8
:050885005361766500DF
:05088A004564697400E3
:05088F004C6F616400E4
:020000040030CA
:0D000100231F3CFFBF81FF0FC00FE00F4029
:00000001FF
