:0400000020EF04F0F9
:1000080000C01CF001C01BF002C01AF003C019F0B8
:1000180004C018F005C017F008C016F009C015F0A4
:10002800E1CF1FF0E2CF20F0E9CF1DF0EACF1EF0BC
:100038009EA26BD09E9200016B6B040E6B5D65E215
:10004800090E006E000E016E6BC004F0000E056E06
:10005800A8DA380E0024E96E000E0120EA6EEECF11
:1000680000F000A850D0090E006E000E016E6BC0A3
:1000780004F0000E056E95DA380E0026000E0122F7
:10008800050E0024046E000E0120056E04C0E9FF71
:1000980005C0EAFF010EEE24006E000EEE20016E90
:1000A800000EEE20026E000EEE20036E04C0E1FF8B
:1000B80005C0E2FF00C0E6FF01C0E6FF02C0E6FFA0
:1000C80003C0E6FF04C0E9FF05C0EAFFEECF00F079
:1000D800EECF01F0EECF02F0EECF03F000500110AA
:1000E8000210031010E1090E006E000E016E6BC0C5
:1000F80004F0000E056E55DA380E0024E16E000E8D
:100108000120E26EE6986B2B98D71CC000F01BC04C
:1001180001F01AC002F019C003F018C004F017C0AB
:1001280005F016C008F015C009F01DC0E9FF1EC093
:0C013800EAFF1FC0E1FF20C0E2FF110041
:06014400000000001200A3
:10014A000F0E0C6E470E0D6E0D2EFED70C2EFCD721
:06015A000000000012008D
:0A016000210E0D6E0D2EFED71200C9
:10016A0000016ABF02D0819601D081866ABD02D0A1
:10017A00819401D081846ABB02D0819201D08182AC
:10018A006AB902D0819001D0818034B002D08188CE
:10019A0001D08198818AD1DF819A6AB702D081968B
:1001AA0001D081866AB502D0819401D081846AB374
:1001BA0002D0819201D081826AB102D0819001D0AD
:1001CA00818034B002D0818801D08198818AB5DFDC
:0E01DA00819A34A002D0B4DF01D0BDDF120044
:0A01E80025C0E9FF26C0EAFF12005F
:1001F200086A096A100E0C6E01340836093604507A
:10020200085E0550D8A0053C095ED8B007D004505E
:1002120008260550D8B0053C0926D890003601368C
:060222000C2EEAD71200C9
:0C022800349060C06AF09DDF348012004A
:1002340006002390D7DFFDCFECFFFECFECFFFFCF0E
:0E024400ECFF5C965CA85C9A37B05C8A1200F6
:100252005D6A050E5D5C0BE25D5000016825E16E92
:10026200000E6921E26E200EE66E5D2AF2D70001D1
:100272005D506825E16E000E6921E26EE66A5D0658
:100282005D5068255E6E000E69215F6E0A0E046E77
:10029200000E056E66C000F067C001F0A9DF08C05D
:1002A20000F009C001F0300E00265EC0E1FF5FC021
:1002B200E2FF00C0E6FF0A0E046E000E056E66C085
:1002C20000F067C001F094DF00C066F001C067F083
:1002D200000E011802E1000E001801E102D05D06D5
:0402E200CFD7120060
:1002E600239A7FDF5D5207E05CA603D05C98EF9807
:1002F6000BD05C8601D05C965CB805D05CAA03D0B6
:0A0306005C86238A01D00600120075
:06031000376A90DF1200C5
:1003160010D0800E0001666F1AD0C00E666F17D01F
:10032600940E666F14D0D40E666F11D0800E666F71
:100336000ED000016651010AECE06651020AEDE0BA
:100346006651030AEDE06651040AEDE0EFD7670552
:10035600006E6651002600C066F000C06AF002DF3B
:1003660034905D6A5D506825E96E000E6921EA6E7B
:10037600EE520BE05D506825E96E000E6921EA6ECB
:0E038600EECF60F04EDF5D2AEDD7348012001E
:1003940029DFFDCFECFFFECFECFFFFCFECFF5C8647
:0403A400060012003D
:1003A800939A93989390939293949396819A819821
:1003B8008196819481928190C4DEC3DEC2DE8182FF
:1003C8008180818ABBDE819ABCDE818AB7DE819A10
:1003D800B8DE818AB3DE819AB4DE8190818AAEDE8E
:1003E800819AAFDE818AAADE819A81928186818A8A
:1003F800A5DE819AA6DE81968180818A9FDE819A18
:100408008190818A9BDE819A9CDE818A97DE819A1F
:100418008180818A93DE819A94DE8190818A8EDE42
:10042800819A8186818481828180818A87DE819A0E
:0604380088DE3480120092
:10043E005C9A25C0E1FF26C0E2FFE69800016651F6
:10044E0067116811691146E0FF0E6619006EFF0E06
:10045E006719016EFF0E6819026EFF0E6919036EA1
:10046E0000C066F001C067F002C068F003C069F01A
:10047E00010E0024046E000E0120056E000E0220F7
:10048E00066E000E0320076E04C066F005C067F00E
:10049E0006C068F007C069F025C000F026C001F064
:1004AE00050E0024E16E000E0120E26E04C0E6FF90
:1004BE0005C0E6FF06C0E6FF07C0E6FF25C0E1FF68
:1004CE0026C0E2FFE68625C0E1FF26C0E2FFE688F1
:0604DE005C885C86120040
:1004E400236A530E326E000E336E316A389C419C7F
:0604F4004A9C539C12001B
:1004FA0056DF010E00016A6F33DE0C0E6A6F30DEC2
:02050A001200DD
:10050C002392380E016E000E026E376A01C0E9FFAD
:10051C0002C0EAFFEECF00F000BC2BD00001618DD1
:10052C006187010E0124E16E000E0220E26E62C0B2
:10053C00E6FF63C0E6FF64C0E6FF65C0E6FF050E9C
:10054C000124E16E000E0220E26EE66AE66AE66ABB
:10055C00E66A01C0E1FF02C0E2FF61C0E6FF0250A3
:10056C00261802E12550011802E161C05CF02392CB
:10057C0009D0090E0126000E0222372A040E375C20
:06058C00C5E3238212000A
:100592002ADEEECF5CF00500EE50FD6EEE50FE6EF0
:0805A200EE50FF6E1200120082
:1005AA000B6A0A6A096A00500402F4CF09F0F3CF11
:1005BA0008F001500502F4CF0BF0F3CF0AF0005017
:1005CA000502F3500926F4500A22E86A0B22015068
:1005DA000402F3500926F4500A22E86A0B2208C0E2
:1005EA0000F009C001F00AC002F00BC003F01200CB
:1005FA000900F5CFE6FF0006FBE10106F9E112006A
:10060A00318081DE0000010E3114006E000E000BF5
:10061A00016E000E011802E1000E0018000ED8A4A7
:10062A00010E5D6E5BDEFE0E31168C702C0E000123
:10063A00666F010E676F000E686F696FFBDEA5DEDD
:0C064A000000FE0E31163182DCD71200D9
:100656005CDE000084B202D0D88001D0D890000EB3
:10066600D8B0010E5D6E5D50000A000ED8A4010ED2
:100676005D6E36DE280E0001666F000E676F686FCE
:10068600696FDADE84DE000084B2E2D78C7C3DDE60
:100696000000000E84B2010E5D6E5D50000A000E71
:1006A600D8A4010E5D6E1CDE280E0001666F000EDA
:1006B600676F686F696FC0DE6ADE000084A2E7D7E5
:0406C600C7D7120080
:1006CA0022DE000084B002D0D88001D0D890000E7B
:1006DA00D8B0010E5D6E5D50000A000ED8A4010E5E
:1006EA005D6EFCDD280E0001666F000E676F686F95
:1006FA00696FA0DE4ADE000084B0E2D78C7E03DE9A
:10070A000000000E84B0010E5D6E5D50000A000EFE
:10071A00D8A4010E5D6EE2DD280E0001666F000EA0
:10072A00676F686F696F86DE30DE000084A0E7D7E6
:04073A00C7D712000B
:10073E00214A222A21C066F022C067F0270E00014E
:10074E00686F000E696F7EDD010E666F010E676FBA
:10075E00270E686F000E696FD7DDF40E666F010EFF
:10076E00676F000E686F696F63DE0DDE0000E0D705
:02077E00120067
:10078000C7DD0000040E3114006E000E000B016E78
:10079000000E011802E1000E0018000ED8A4010E90
:1007A0005D6EA1DDFB0E31168C742C0E0001666FA0
:1007B000010E676F000E686F696F41DEEBDD0000B0
:0A07C000FB0E31163180DCD7120069
:1007CA000F01386B396B3A6B3B6B3C6B956A836AEA
:0607DA00968096821200D9
:1007E0004D0EBA6E310EBB6EF28EF28CD08E9D82A3
:0607F0009F82BA84120092
:1007F6008CDD0000020E3114006E000E000B016E3F
:10080600000E011802E1000E0018000ED8A4010E19
:100816005D6E66DDFD0E31168C722C0E0001666F64
:10082600010E676F000E686F696F06DEB0DD0000AF
:0A083600FD0E31163184DCD71200EC
:10084000216A226AC2DFCCDF58DE4CDE616B0A0E01
:10085000626F060E636F000E646F000E656F56DEEA
:100860000001616BF60E626F070E636F000E646F1E
:10087000000E656F4BDE0001616B800E626F070E2C
:10088000636F000E646F000E656F40DE0001616BE8
:100890003E0E626F070E636F000E646F000E656F91
:1008A00035DE0001616BCA0E626F060E636F000ECB
:1008B000646F000E656F2ADE0001616B560E626F79
:1008C000060E636F000E646F000E656F1FDE3190C1
:1008D00031923194F28ED0BEF28C23982386080E8A
:1008E000246E32C025F033C026F0000E265C02E1F3
:1008F000530E255C05E3380E256E000E266E0AD0D9
:10090000090E2524006E000E2620016E00C025F081
:1009100001C026F025C0E9FF26C0EAFF010E006EE7
:100920005C0EE16E000EE26EEECFE6FF0006FCE12B
:100930005CAC03D05CBE01D001D02ED05CC000F016
:10094000070E001600C037F02450375C01E324D0B6
:100950005CB60CD01EDE48DCD70EEF16280E5C14F9
:10096000006E0050EF1223B601D03BD05CA803D03C
:100970005CBA01D011D05CA60FD0238825C035F019
:1009800026C036F05CC000F0070E001600C024F050
:100990002450000A01E107D02650331802E13250FA
:1009A000251801E0A2D723A81CD0239635C025F036
:1009B00036C026F025C032F026C033F025C0E9FF4E
:1009C00026C0EAFF010E006E5C0EE16E000EE26EC4
:1009D000EECFE6FF0006FCE15CAC03D05CBE01D0CC
:0609E000B9D77BD7FFD759
:020000040030CA
:0D000100231F3CFFBF81FF0FC00FE00F4029
:00000001FF
