:10000000BFEF05F000000000E9EF04F00000000081
:0C001000000000000000000097EF05F069
:0A001C00210E0D6E0D2EFED712000E
:100026000F0E0C6E470E0D6E0D2EFED70C2EFCD746
:06003600000000001200B2
:06003C00000000001200AC
:0A0042003DC0E9FF3EC0EAFF1200D6
:10004C000001A9BF02D0819601D08186A9BD02D042
:10005C00819401D08184A9BB02D0819201D081828C
:10006C00A9B902D0819001D0818080B102D0818861
:10007C0001D08198818ADCDF819AA9B702D0819660
:10008C0001D08186A9B502D0819401D08184A9B315
:10009C0002D0819201D08182A9B102D0819001D08D
:1000AC00818080B102D0818801D08198818AC0DFA3
:0E00BC00819A80A102D0B1DF01D0AADF12002C
:1000CA00086A096A100E0C6E0134083609360450A3
:1000DA00085E0550D8A0053C095ED8B007D0045088
:1000EA0008260550D8B0053C0926D89000360136B6
:0600FA000C2EEAD71200F3
:0E01000000018091A8C0A9F0A1DF808112004B
:10010E0006000001639196DFFDCFECFFFECFECFF02
:10011E00FFCFECFF3C963CA83C9A75A101D03C8ADF
:02012E001200BD
:0C0130000E0E0D6E0D2EFED7000012000A
:10013C000001639B80DFA15307E03CA603D03C98F1
:10014C00EF980BD03C8601D03C963CB805D03CAA2D
:0C015C0003D03C86638B01D0060012002B
:10016800C00EF21400019B6FF29ED0BEF29C1200EA
:1001780010D0800E0001A16F1AD0C00EA16F17D049
:10018800940EA16F14D0D40EA16F11D0800EA16F60
:100198000ED00001A151010AECE0A151020AEDE0E4
:1001A800A151030AEDE0A151040AEDE0EFD7A20541
:1001B800006EA151002600C0A1F000C0A9F042DFE6
:1001C8008091A56BA551A325E96E000EA421EA6EC6
:1001D800EE520BE0A551A325E96E000EA421EA6EAC
:0E01E800EECFA8F089DFA52BEDD780811200A5
:1001F6003C9A3DC0E1FF3EC0E2FFE6980001A151F6
:10020600A211A311A41146E0FF0EA119006EFF0E64
:10021600A219016EFF0EA319026EFF0EA419036E3A
:1002260000C0A1F001C0A2F002C0A3F003C0A4F078
:10023600010E0024046E000E0120056E000E022041
:10024600066E000E0320076E04C0A1F005C0A2F0E2
:1002560006C0A3F007C0A4F03DC000F03EC001F008
:10026600050E0024E16E000E0120E26E04C0E6FFDA
:1002760005C0E6FF06C0E6FF07C0E6FF3DC0E1FF9A
:100286003EC0E2FFE6863DC0E1FF3EC0E2FFE688F3
:060296003C883C861200CA
:10029C0000019BAF01D0F28ED0AE03D09BAD01D04C
:0402AC00F28C1200BE
:1002B0000001A56B050EA55D0AE2A551A325E16E1F
:1002C000000EA421E26E200EE66EA52BF3D7A551F9
:1002D000A325E16E000EA421E26EE66AA507A551F2
:1002E000A325A66F000EA421A76F0A0E046E000EB0
:1002F000056EA1C000F0A2C001F0E7DE08C000F06A
:1003000009C001F0300E0026A6C0E1FFA7C0E2FF41
:1003100000C0E6FF0A0E046E000E056EA1C000F0DC
:10032000A2C001F0D2DE00C0A1F001C0A2F0000E18
:10033000011802E1000E001801E102D0A507CFD795
:020340001200A9
:080342000001756BE3DE1200FF
:10034A007BDEFDCFECFFFECFECFFFFCFECFF3C8660
:04035A000600120087
:10035E00C26A3B1C006E0050C1160F0EC012C08E3A
:10036E00A1C000F000360090003600900050C2127E
:10037E00C280D7DEC282C2A201D0FDD7C4CF01F0A7
:10038E00006A00C0A2F001C0A3F0C3500012000E1C
:10039E00011200C0A2F001C0A3F0C290000E001422
:1003AE00026E0150800B036E000E031802E1000E68
:1003BE00021803E00001A26BA36BA2C000F0A3C061
:0403CE0001F0120028
:1003D200939A93989390939293949396819A8198F7
:1003E20081968194819281901DDE1CDE1BDE8182CA
:1003F2008180818A22DE819A15DE818A1EDE819ABF
:1004020011DE818A1ADE819A0DDE8190818A15DEE3
:10041200819A08DE818A11DE819A81928186818A9F
:100422000CDE819AFFDD81968180818A06DE819AC7
:100432008190818A02DE819AF5DD818AFEDD819AD0
:100442008180818AFADD819AEDDD8190818AF5DDF4
:10045200819A8186818481828180818AEEDD819A7E
:08046200E1DD000180811200C0
:10046A007EDE646B000E656F000E666F12DFA16B95
:10047A0071DF00C0A1F001C0A2F0760E0001A36FE7
:10048A00000EA46F10DF6BDE64A114D002DF54DF0C
:10049A000000010E6415A16FA153010ED8A4000E2D
:1004AA00A16FA151000A000ED8A4010EA16F41DE6E
:1004BA0056DEEAD7010E646F760E656F000E666F20
:1004CA00E8DE3ADF0000010E6415A16FA153010EA8
:1004DA00D8A4000EA16FA151000A000ED8A4010EE3
:1004EA00A16F27DE320EA16F000EA26FA36FA46F59
:0A04FA007DDE26DF0000BBD71200F4
:100504000900F5CFE6FF0006FBE10106F9E1120060
:100514000001636B5A0E976F000E986F9A6B3F9CA5
:08052400489C519C5A9C1200F6
:10052C00060ED56EC20ED76EF70ED66EF294D58E21
:08053C00F294F194F28A12001E
:1005440046DF010EA96F80DD0C0EA96F7DDD120060
:1005540076DDEECF3CF00500EE50FD6EEE50FE6E03
:08056400EE50FF6E12001200C0
:10056C000B6A0A6A096A00500402F4CF09F0F3CF4F
:10057C0008F001500502F4CF0BF0F3CF0AF0005055
:10058C000502F3500926F4500A22E86A0B220150A6
:10059C000402F3500926F4500A22E86A0B2208C020
:1005AC0000F009C001F00AC002F00BC003F0120009
:1005BC00000163933F0E016E000E026E756B01C05D
:1005CC00E9FF02C0EAFFEECF00F000BC2AD09C8D00
:1005DC009C87010E0124E16E000E0220E26E9DC08C
:1005EC00E6FF9EC0E6FF9FC0E6FFA0C0E6FF050E3B
:1005FC000124E16E000E0220E26EE66AE66AE66A0B
:10060C00E66A01C0E1FF02C0E2FF9CC0E6FF0250B7
:10061C003E1802E13D50011802E19CC03CF063938E
:10062C0009D0090E0126000E0222752B040E755DF1
:06063C00C6E36383120017
:100642004D0EBA6E310EBB6EF28EF28CD08E9D8242
:060652009F82BA84120031
:10065800000167A104D084DD676B1CDE8C7071DE3D
:060668000000F6D71200AD
:10066E007CDD6D6B000E6E6F000E6F6F10DE020E76
:10067E00A16F6EDE00C0A1F001C0A2F0810E0001DC
:10068E00A36F000EA46F0DDE68DD6DA114D0FFDD2B
:10069E0051DE0000010E6D15A16FA153010ED8A4FD
:1006AE00000EA16FA151000A000ED8A4010EA16F79
:1006BE003EDD53DDEAD7010E6D6F810E6E6F000EBB
:1006CE006F6FE5DD37DE0000010E6D15A16FA153D2
:1006DE00010ED8A4000EA16FA151000A000ED8A4DD
:1006EE00010EA16F24DD320EA16F000EA26FA36F5B
:0C06FE00A46F7ADD23DE0000BAD71200E2
:10070A002EDD6A6B000E6B6F000E6C6FC2DD010E80
:10071A00A16F20DE00C0A1F001C0A2F08B0E000183
:10072A00A36F000EA46FBFDD1ADD6AA114D0B1DD7C
:10073A0003DE0000010E6A15A16FA153010ED8A4B1
:10074A00000EA16FA151000A000ED8A4010EA16FDC
:10075A00F0DC05DDEAD7010E6A6F8B0E6B6F000EB7
:10076A006C6F97DDE9DD0000010E6A15A16FA153D8
:10077A00010ED8A4000EA16FA151000A000ED8A440
:10078A00010EA16FD6DC320EA16F000EA26FA36F0D
:0C079A00A46F2CDDD5DD0000BAD71200E2
:1007A6000F01386B396B3A6B3B6B3C6B956A836A0E
:0A07B60096809682070E926E1200E4
:1007C000D3DC726B000E736F000E746F67DDB9DDE2
:1007D000000084B002D0D88001D0D890000ED8B0EC
:1007E000010EA16FA151000A000ED8A4010EA16F45
:1007F000A5DC280EA16F000EA26FA36FA46FFBDC17
:10080000A4DD000084B0E3D78C7E8CAE46D070C0EF
:10081000E9FF71C0EAFFEECF00F000BE3DD0A4DCDE
:1008200072A114D03BDD8DDD0000010E7215A16FA9
:10083000A153010ED8A4000EA16FA151000A000E11
:10084000D8A4010EA16F7ADC8FDCEAD7010E726F9B
:100850002F0E736F000E746F21DD73DD0000010E2B
:100860007215A16FA153010ED8A4000EA16FA15162
:10087000000A000ED8A4010EA16F60DC70C0E1FF79
:1008800071C0E2FFE68E71513E1802E13D507019D1
:1008900003E13C8E5ADD00003CD070C0E9FF71C01E
:1008A000EAFFEECF00F000AE34D05EDC72A114D0CF
:1008B000F5DC47DD0000010E7215A16FA153010E9A
:1008C000D8A4000EA16FA151000A000ED8A4010EF9
:1008D000A16F34DC49DCEAD7010E726F290E736F09
:1008E000000E746FDBDC2DDD0000010E7215A16FB0
:1008F000A153010ED8A4000EA16FA151000A000E51
:10090000D8A4010EA16F1ADC70C0E1FF71C0E2FF34
:10091000E69E17DD0000000E84B0010EA16FA1510C
:10092000000A000ED8A4010EA16F08DC280EA16FEA
:10093000000EA26FA36FA46F5EDC07DD000084A031
:06094000E8D745D71200C4
:10094600000164A110D00DDC65C09CF066C09DF06E
:10095600646BA1DC010EA16F010EA26F9CC0A3F017
:100966009DC0A4F006DC6AA112D0B4EC00F06BC006
:100976009CF06CC09DF06A6B8EDC010EA16F0A0EB6
:10098600A26F9CC0A3F09DC0A4F0BCEC00F06DA1CA
:1009960012D0B4EC00F06EC09CF06FC09DF06D6B91
:1009A6007ADC020EA16F010EA26F9CC0A3F09DC05F
:1009B600A4F0BCEC00F0140EA16F000EA26FA36FA2
:0C09C600A46F16DCBFDC0000BBD71200E1
:1009D20000C022F001C021F002C020F003C01FF0CD
:1009E20004C01EF005C01DF008C01CF009C01BF0B9
:1009F2000AC01AF00BC019F0E1CF27F0E2CF28F0BD
:100A0200E9CF25F0EACF26F0F3CF23F0F4CF24F09C
:100A12009EA26BD09E920001AA6B040EAA5D65E2B3
:100A2200090E006E000E016EAAC004F0000E056EE3
:100A32009CDD3F0E0024E96E000E0120EA6EEECF2F
:100A420000F000A850D0090E006E000E016EAAC080
:100A520004F0000E056E89DD3F0E0026000E012215
:100A6200050E0024046E000E0120056E04C0E9FF8D
:100A720005C0EAFF010EEE24006E000EEE20016EAC
:100A8200000EEE20026E000EEE20036E04C0E1FFA7
:100A920005C0E2FF00C0E6FF01C0E6FF02C0E6FFBC
:100AA20003C0E6FF04C0E9FF05C0EAFFEECF00F095
:100AB200EECF01F0EECF02F0EECF03F000500110C6
:100AC2000210031010E1090E006E000E016EAAC0A2
:100AD20004F0000E056E49DD3F0E0024E16E000EAB
:100AE2000120E26EE698AA2B98D723C0F3FF24C018
:100AF200F4FF22C000F021C001F020C002F01FC0AC
:100B020003F01EC004F01DC005F01CC008F01BC09D
:100B120009F01AC00AF019C00BF025C0E9FF26C07F
:0C0B2200EAFF27C0E1FF28C0E2FF11003D
:100B2E0000C018F0156ED8CF16F0E0CF17F0F2A473
:100B3E0016D0F294C20ED76EF70ED66E000172A1C9
:100B4E0002D0726B8C7C67B10AD0639167A101D021
:100B5E006381010E676F350E686F000E696F175057
:100B6E00E06E1650D86E153A153818C000F0100009
:100B7E00B0EC06F011DE5EDDDEDCD1DCC4DC9C6B9D
:100B8E006A0E9D6F040E9E6F000E9F6F000EA06F7B
:100B9E000EDD63B30FD0090E006E000E016E75C030
:100BAE0004F0000E056EDBDC3F0E0024706F000EAD
:100BBE000120716F010E9C6F0A0E9D6F070E9E6FC6
:100BCE00000E9F6F000EA06FF2DC020E9C6F6E0E79
:100BDE009D6F060E9E6F000E9F6F000EA06FE7DCDE
:100BEE009C6B580E9D6F060E9E6F000E9F6F000E33
:100BFE00A06FDDDC030E9C6F460E9D6F090E9E6F7F
:100C0E00000E9F6F000EA06FD2DC040E9C6FC00E04
:100C1E009D6F070E9E6F000E9F6F000EA06FC7DCBC
:100C2E00F28ED0BEF28C63996387080E996F63A51E
:100C3E0001D019D097C03DF098C03EF0000E3E5C3A
:100C4E0002E15A0E3D5C05E33F0E3D6E000E3E6E18
:100C5E000AD0090E3D24006E000E3E20016E00C02B
:100C6E003DF001C03EF03DC0E9FF3EC0EAFF010E7F
:100C7E00006E3C0EE16E000EE26EEECFE6FF000659
:100C8E00FCE13CAC03D03CBE01D001D02FD03CC027
:100C9E0000F0070E001600C075F09951755D01E366
:100CAE0025D03CB60DD04FDC21EC00F0D70EEF1660
:100CBE00280E3C14006E0050EF1263B701D03DD0E9
:100CCE003CA803D03CBA01D011D03CA60FD063890A
:100CDE003DC095F03EC096F03CC000F0070E0016E9
:100CEE0000C099F09951000A01E109D063B507D00F
:100CFE003E50981902E197513D1801E09FD763A924
:100D0E001CD0639795C03DF096C03EF03DC097F065
:100D1E003EC098F03DC0E9FF3EC0EAFF010E006EF6
:100D2E003C0EE16E000EE26EEECFE6FF0006FCE139
:0E0D3E003CAC03D03CBE01D0B6D775D7FFD772
:100D600010EE29F0130E006E010E016E4C0EF66EA1
:0E0D70000D0EF76E000EF86E82EC02F012000F
:060D4C00436F6E742000ED
:060D52005061757365009D
:040D5800696E74004C
:020D5C00000095
:010D5E000F85
:020000040030CA
:0D000100231F3CFFBF81FF0FC00FE00F4029
:00000001FF
