:040000009DEF02F07E
:1000080000C018F001C017F002C016F00BC015F0C0
:10001800E1CF1BF0E2CF1CF0E9CF19F0EACF1AF0DC
:100028009EA2B8D09E925E6A040E5E5C65E2090EDE
:10003800006E000E016E5EC004F0000E056E6ED9F3
:100048001D0E0024E96E000E0120EA6EEECF00F0CE
:1000580000A850D0090E006E000E016E5EC004F0BC
:10006800000E056E5BD91D0E0026000E0122050E3E
:100078000024046E000E0120056E04C0E9FF05C0CF
:10008800EAFF010EEE24006E000EEE20016E000E57
:10009800EE20026E000EEE20036E04C0E1FF05C0E4
:1000A800E2FF00C0E6FF01C0E6FF02C0E6FF03C0B2
:1000B800E6FF04C0E9FF05C0EAFFEECF00F0EECF8F
:1000C80001F0EECF02F0EECF03F000500110021065
:1000D800031010E1090E006E000E016E5EC004F000
:1000E800000E056E1BD91D0E0024E16E000E0120C6
:1000F800E26EE6985E2A98D75F6A020E5F5C4AE273
:100108005FC000F0000E016E003600900136003628
:10011800009001364E0E0024E96E000E0120EA6EB2
:10012800EECF04F0EECF05F0EECF06F0EECF07F0FD
:1001380007AE2ED05FC000F0000E016E00360090B2
:1001480001360036009001364E0E0024046E000E73
:100158000120056E04C0E9FF05C0EAFFEECF00F0FC
:10016800EECF01F0EECF02F0EECF03F0010E002645
:10017800000E01220222032204C0E1FF05C0E2FFB3
:1001880000C0E6FF01C0E6FF02C0E6FF03C0E6FFCD
:100198005F2AB3D718C000F017C001F016C002F0EC
:1001A80015C00BF019C0E9FF1AC0EAFF1BC0E1FF38
:0601B8001CC0E2FF110073
:0601BE0000000000120029
:0A01C400210E0D6E0D2EFED7120065
:1001CE000F0E0C6E470E0D6E0D2EFED70C2EFCD79D
:0601DE0000000000120009
:0A01E40047C0E9FF48C0EAFF12001F
:1001EE005DBE02D0819601D081865DBC02D0819425
:1001FE0001D081845DBA02D0819201D081825DB836
:10020E0002D0819001D0818056B002D0818801D079
:10021E008198818ACDDF819A5DB602D0819601D018
:10022E0081865DB402D0819401D081845DB202D00A
:10023E00819201D081825DB002D0819001D0818007
:10024E0056B002D0818801D08198818AB1DF819A1F
:0C025E0056A002D0B5DF01D0AEDF1200C8
:10026A00939A93989390939293949396819A819860
:10027A008196819481928190A5DFA4DFA3DF818298
:10028A008180818A97DF819A9DDF818A93DF819AB3
:10029A0099DF818A8FDF819A95DF8190818A8ADF4F
:1002AA00819A90DF818A86DF819A81928186818A0A
:1002BA0081DF819A87DF81968180818A7BDF819ABB
:1002CA008190818A77DF819A7DDF818A73DF819AC3
:1002DA008180818A6FDF819A75DF8190818A6ADFE6
:1002EA00819A8186818481828180818A63DF819A71
:0602FA0069DF56801200CE
:1003000071DFFDCFECFFFECFECFFFFCFECFF4C86A3
:0403100006001200D1
:100314000900F5CFE6FF0006FBE10106F9E1120052
:100324000B6A0A6A096A00500402F4CF09F0F3CF99
:1003340008F001500502F4CF0BF0F3CF0AF000509F
:100344000502F3500926F4500A22E86A0B220150F0
:100354000402F3500926F4500A22E86A0B2208C06A
:1003640000F009C001F00AC002F00BC003F0120053
:1003740037DFEECF4CF00500EE50FD6EEE50FE6E12
:08038400EE50FF6E12001200A2
:10038C0047C049F048C04AF08C72150E0B6E4B0EEC
:10039C000C6EBE0E0D6E0D2EFED70C2EFCD70B2E3A
:1003AC00FAD7000049C0E1FF4AC0E2FFE68E4A508E
:1003BC00481802E14750491803E14C8E9BDF0000BE
:0403CC00E3D7120061
:1003D00047C049F048C04AF08C74150E0B6E4B0EA6
:1003E0000C6EBE0E0D6E0D2EFED70C2EFCD70B2EF6
:1003F000FAD7000049C0E1FF4AC0E2FFE68E4A504A
:10040000481802E14750491803E14C8E79DF00009B
:04041000E3D712001C
:1004140047C049F048C04AF08C70150E0B6E4B0E65
:100424000C6EBE0E0D6E0D2EFED70C2EFCD70B2EB1
:10043400FAD7000049C0E1FF4AC0E2FFE68E4A5005
:10044400481802E14750491803E14C8E57DF000079
:04045400E3D71200D8
:100458004B921D0E016E000E026E456A01C0E9FF47
:1004680002C0EAFFEECF00F000BC2AD0588C5886B4
:10047800010E0124E16E000E0220E26E59C0E6FF73
:100488005AC0E6FF5BC0E6FF5CC0E6FF050E01242C
:10049800E16E000E0220E26EE66AE66AE66AE66A45
:1004A80001C0E1FF02C0E2FF58C0E6FF0250481851
:1004B80002E14750011802E158C04CF04B9209D0B4
:1004C800090E0126000E0222452A040E455CC6E3E9
:0404D8004B82120041
:1004DC004B6A380E416E000E426E030E4D6E576A1B
:0A04EC001D9C269C2F9C389C1200DA
:1004F6004D0EBA6E310EBB6EF28EF28CD08E9D8290
:060506009F82BA8412007E
:10050C000F01386B396B3A6B3B6B3C6B956A836AAA
:0E051C00968096829680848096828482120059
:10052A009FDE010E5D6E5EDE0C0E5D6E5BDE1200FE
:10053A00E8DFDCDFF5DFCDDF020E586E140E596EF0
:10054A00040E5A6E000E5B6E000E5C6E80DF010EAA
:10055A00586E8C0E596E030E5A6E000E5B6E000EAC
:10056A005C6E75DF586AD00E596E030E5A6E000E15
:10057A005B6E000E5C6E6BDFF28ED0BEF28C4B9817
:10058A004B86080E466E41C047F042C048F0000E46
:10059A00485C02E1380E475C05E31D0E476E000E0B
:1005AA00486E0AD0090E4724006E000E4820016EDC
:1005BA0000C047F001C048F047C0E9FF48C0EAFF61
:1005CA00010E006E4C0EE16E000EE26EEECFE6FFFB
:1005DA000006FCE14CAC03D04CBE01D001D02ED0B9
:1005EA004CC000F0070E001600C045F04650455CAE
:1005FA0001E324D04CB60CD0B8DEEFDDD70EEF16EF
:10060A00280E4C14006E0050EF124BB601D03BD0AE
:10061A004CA803D04CBA01D011D04CA60FD04B88AD
:10062A0047C043F048C044F04CC000F0070E001623
:10063A0000C046F04650000A01E107D0485042186F
:10064A0002E14150471801E0A2D74BA81CD04B96B3
:10065A0043C047F044C048F047C041F048C042F0A8
:10066A0047C0E9FF48C0EAFF010E006E4C0EE16E7A
:10067A00000EE26EEECFE6FF0006FCE14CAC03D0C2
:0A068A004CBE01D0B9D77BD7FFD7D3
:020000040030CA
:0D000100231F3CFFBF81FF0FC00FE00F4029
:00000001FF
