:0400000088EF02F093
:1000080000C01CF001C01BF002C01AF003C019F0B8
:1000180004C018F005C017F006C016F007C015F0A8
:10002800E1CF1FF0E2CF20F0E9CF1DF0EACF1EF0BC
:100038009EA2B9D09E925F6A040E5F5C65E2090ECB
:10004800006E000E016E5FC004F0000E056E72D9DE
:10005800340E0024E96E000E0120EA6EEECF00F0A7
:1000680000A850D0090E006E000E016E5FC004F0AB
:10007800000E056E5FD9340E0026000E0122050E13
:100088000024046E000E0120056E04C0E9FF05C0BF
:10009800EAFF010EEE24006E000EEE20016E000E47
:1000A800EE20026E000EEE20036E04C0E1FF05C0D4
:1000B800E2FF00C0E6FF01C0E6FF02C0E6FF03C0A2
:1000C800E6FF04C0E9FF05C0EAFFEECF00F0EECF7F
:1000D80001F0EECF02F0EECF03F000500110021055
:1000E800031010E1090E006E000E016E5FC004F0EF
:1000F800000E056E1FD9340E0024E16E000E01209B
:10010800E26EE6985F2A98D70001606B020E605D88
:100118004AE260C000F0000E016E00360090013621
:10012800003600900136260E0024E96E000E0120EC
:10013800EA6EEECF04F0EECF05F0EECF06F0EECF8C
:1001480007F007AE2ED060C000F0000E016E00363A
:1001580000900136003600900136260E0024046E09
:10016800000E0120056E04C0E9FF05C0EAFFEECFCE
:1001780000F0EECF01F0EECF02F0EECF03F0010E6B
:100188000026000E01220222032204C0E1FF05C05E
:10019800E2FF00C0E6FF01C0E6FF02C0E6FF03C0C1
:1001A800E6FF602BB3D71CC000F01BC001F01AC0DB
:1001B80002F019C003F018C004F017C005F016C00B
:1001C80006F015C007F01DC0E9FF1EC0EAFF1FC0FA
:0801D800E1FF20C0E2FF11006D
:0A01E00022C0E9FF23C0EAFF12006D
:1001EA0006002490F8DFFDCFECFFFECFECFFFFCF37
:0E01FA00ECFF589658A8589A33B0588A120055
:10020800589A22C0E1FF23C0E2FFE698000161513D
:1002180062116311641146E0FF0E6119006EFF0E52
:100228006219016EFF0E6319026EFF0E6419036EE8
:1002380000C061F001C062F002C063F003C064F066
:10024800010E0024046E000E0120056E000E02202F
:10025800066E000E0320076E04C061F005C062F050
:1002680006C063F007C064F022C000F023C001F0AC
:10027800050E0024E16E000E0120E26E04C0E6FFC8
:1002880005C0E6FF06C0E6FF07C0E6FF22C0E1FFA3
:1002980023C0E2FFE68622C0E1FF23C0E2FFE68832
:0602A80058885886120080
:1002AE0098DFFDCFECFFFECFECFFFFCFECFF5886C3
:0402BE000600120024
:1002C200249A8DDF5E5207E058A603D05898EF9823
:1002D2000BD0588601D0589658B805D058AA03D0EA
:0A02E2005886248A01D0060012009D
:0602EC00336A7DDF120001
:1002F200FCDF0000040E2514006E000E000B016EE0
:10030200000E011802E1000E0018000ED8A4010E22
:100312005E6ED6DFFB0E25168C742C0E0001616F0B
:10032200010E626F000E636F646F6DDFBFDF00004E
:0A033200FB0E25162580DCD7120013
:10033C000B6A0A6A096A00500402F4CF09F0F3CF81
:10034C0008F001500502F4CF0BF0F3CF0AF0005087
:10035C000502F3500926F4500A22E86A0B220150D8
:10036C000402F3500926F4500A22E86A0B2208C052
:10037C0000F009C001F00AC002F00BC003F012003B
:10038C00AFDF0000020E2514006E000E000B016E94
:10039C00000E011802E1000E0018000ED8A4010E88
:1003AC005E6E89DFFD0E25168C722C0E0001616FBE
:1003BC00010E626F000E636F646F20DF72DF00004E
:0A03CC00FD0E25162584DCD7120073
:1003D60004DFEECF58F00500EE50FD6EEE50FE6ED7
:0803E600EE50FF6E1200120040
:1003EE000900F5CFE6FF0006FBE10106F9E1120078
:1003FE00258075DF0000010E2514006E000E000B27
:10040E00016E000E011802E1000E0018000ED8A4B5
:10041E00010E5E6E4FDFFE0E25168C702C0E000147
:10042E00616F010E626F000E636F646FE6DE38DF80
:0C043E000000FE0E25162582DCD71200FF
:10044A002492340E016E000E026E336A01C0E9FF77
:10045A0002C0EAFFEECF00F000BC2AD0598C5986C0
:10046A00010E0124E16E000E0220E26E5AC0E6FF80
:10047A005BC0E6FF5CC0E6FF5DC0E6FF050E012437
:10048A00E16E000E0220E26EE66AE66AE66AE66A53
:10049A0001C0E1FF02C0E2FF59C0E6FF0250231883
:1004AA0002E12250011802E159C058F0249209D001
:1004BA00090E0126000E0222332A040E335CC6E31B
:0404CA002482120076
:1004CE000F01386B396B3A6B3B6B3C6B956A836AE9
:0204DE0012000A
:1004E0004D0EBA6E310EBB6EF28EF28CD08E9D82A6
:0604F0009F82BA84120095
:1004F600246A4F0E2E6E000E2F6E030E326E256A84
:0A050600349C3D9C469C4F9C120063
:10051000DEDFE6DFF0DF596AFE0E5A6E030E5B6E19
:10052000000E5C6E000E5D6E90DF596A8C0E5A6E86
:10053000030E5B6E000E5C6E000E5D6E86DF596A08
:10054000F20E5A6E020E5B6E000E5C6E000E5D6E59
:100550007CDF259025922594F28ED0BEF28C2498D3
:100560002486080E216E2EC022F02FC023F0000E2C
:10057000235C02E14F0E225C05E3340E226E000E76
:10058000236E0AD0090E2224006E000E2320016E75
:1005900000C022F001C023F022C0E9FF23C0EAFF1F
:1005A000010E006E580EE16E000EE26EEECFE6FF19
:1005B0000006FCE158AC03D058BE01D001D02ED0CB
:1005C00058C000F0070E001600C033F02150335C15
:1005D00001E324D058B60CD0FEDE02DED70EEF16B3
:1005E000280E5814006E0050EF1224B601D03BD0F4
:1005F00058A803D058BA01D011D058A60FD02488DB
:1006000022C030F023C031F058C000F0070E0016B1
:1006100000C021F02150000A01E107D023502F181B
:1006200002E12E50221801E0A2D724A81CD0249663
:1006300030C022F031C023F022C02EF023C02FF0B2
:1006400022C0E9FF23C0EAFF010E006E580EE16EE2
:10065000000EE26EEECFE6FF0006FCE158AC03D0E0
:0A06600058BE01D0B9D77BD7FFD7F1
:020000040030CA
:0D000100231F3CFFBF81FF0FC00FE00F4029
:00000001FF
